:100000001EC538C537C536C535C504C733C532C565
:1000100031C530C52FC52EC52DC52CC52BC500C675
:100020000BC610C615C61AC61FC624C629C6AE20E2
:1000300000B0C8001040813FA1A6A83FA4D300D5BE
:10004000F0D922DA12DB208D14AF0000000000008E
:10005000020202020202040404040404040404046C
:10006000040404040404040404020000020404025E
:1000700000000204040404040404FF00000000FF64
:10008000020202020202040404040404FF04040441
:1000900004FF00FF0000FF0002FF0202FF0204FF56
:1000A0000404FF0404FF0404FF04FFFF0202FFFF37
:1000B00000020202020002040202040202FFFFFF29
:1000C000FF0204040404040402020202020200000B
:1000D00000000000000000000000FF00000000FF22
:1000E00002FFFFFFFF0204FFFFFFFF04FF04040401
:1000F00004FF04FF04FF04FFFF04FF04FF0404FFE8
:1001000004FF04FFFF04FF04FF04FFFF0000FFFFE4
:10011000020204040202020204040202FFFF0000C1
:10012000FFFF0000040402020000040402020000B9
:1001300004040202000004040202FFFFFDFFFFFFAF
:10014000FFFFFFFFFFFFFFFFFFFFFFFFFFFFFDFFC1
:10015000FFFFFFFFFFFFFFFFFFFFFF3F5F1FCF2FEF
:10016000C7BFE77FEFFFBFFFFFFFFFFFFFFFFFFFFF
:10017000FFFFFFFFFFFFFBFFFFFFFFFFFFFFFFFF93
:10018000FFFFFFFFFFF7FFFFFFFFFFFFFFFFFFFF87
:10019000FFFFFFFFFF7FFFFFFFFFFFFFFFFFFFFFEF
:1001A000FFFFFF7FFFFFFFFFFFFFFFFFFFFFFFFFDF
:1001B000FFFFFFFFF7FFFFFFFFFFFFFFFFFFFFFF57
:1001C000FFFFFFFFFFFFFFFFFEFFFFFFFFFFFFFF40
:1001D000FFFFFFFDFFFFFFFFFFFFC014E9F6BDEFCC
:1001E000FDFFFDFFBFFFD77FDFBFF6FFFFFFFFFF74
:1001F000FFFFFFFFFFFFFFFFFFFFFF7FFFFFFFFF8F
:10020000FFFFFFFFFFFFFFFFFFFFFFFFFFFFFFFFFE
:10021000FFFFFFFFFFFFFFFFFFFFFFFFFFFFBFFF2E
:10022000FFFFFFFFFFFFFFFFFFFFFFDFFFFFFFFFFE
:10023000FFFFFFFFBFFFFFFFFFFFFFFFFFFFFFFF0E
:10024000FFFFFFFFFFFFEFFFFFFFFFFFFFFFFFFFCE
:10025000FFFFFFFFFFFFFFFFFFFFFFFFFEFFFDF7B9
:10026000FFF7FFF7FFFDFFFFFDFFFFFFFFFFFFFFB2
:10027000FFFFFFFFFFFFFFFFFFFFFFFFFFFFFFFF8E
:10028000FFFFFFFFBF7F1FBF0F478F23479343B57C
:100290004BA3DBA5DBB3E75BF7AFF76FFFDFFF5FD8
:1002A000FFFFFFFFFFFFFFFFFFFFBFFFFFFFFFFF9E
:1002B000FFFFFFFFFFFFFFFFFFFFFFFFFFFFFFFF4E
:1002C000FFFFFFFFFFFFFFFFFFFFFFFFFFFFFFDF5E
:1002D000FFFFFFFFFFFFFFFFFFFFFFFFEFFFFFFF3E
:1002E000FFFFFFFFFFFFFFFFFFFFFFFFFFFFFFFF1E
:1002F000FFFFBFFFFFFFFFFFFFFFFFFFFFFF9F0F9E
:100300004315025004A218E20CF20CF3ACDAF5BA71
:10031000ED7AEFDABFF6FFEFFDF77FFFEDFF7FFB32
:10032000BFFEDF7DF7DFFFBFFFFFFFBFFFFFFFFF68
:10033000FFFFFFFFFFFFFFFFFFFFFFFEFFFFFFFFCE
:10034000FFFFFFFFFFFFFFFFFFFFFFFFFFBFFFFFFD
:10035000FFFFAFFFFFFFFFBFFFFFFFFFFFFFFFFF3D
:10036000FFFFFFFFFFFFFFFFFFFFFFFFFFFFFFFF9D
:10037000FFFFFFFFFFFFFFFFFFFFFFFF11240852FA
:10038000005528C31CD1B64DFA57FDD76EFBEE774A
:10039000DFF5DFFBFDBFFAFFFDFFFD7FFEBFFFDFE7
:1003A000FFFFFFBFFFFFFFFEABFFFFFFFFFFFFFFF2
:1003B000FFFFFFFDFFFFFFFFFFFFFFFFFFFFFFFF4F
:1003C000FFFFFFFFFFFFFFFFFEFFFFF7FFF7FFB697
:1003D000D5F780F7D5B6FFF7FFF7FFFFFFFFFFFF69
:1003E000FFFFFFFFFFFFFFFFFFFFFFFFFFFFFFFF1D
:1003F000FFFFFFFFFFFFFFFFFFFFFFF648A11449CC
:10040000A659A5BA6BDE75FFDB7FEDFFF7FFFD7F19
:10041000FFFDFFFEFFFFFFFFDFFBFFBFF7DFFBBFBF
:100420006DDFFFB77FFF57BED5FFFFFFFFFFFF7FE9
:10043000FFFFFFFFFFFFFFFFBFFFFFFFFFFFFFFF0C
:10044000FFFDFFFFFFFFFFFFFFFFFFFFFFFEFFFFBF
:10045000FFFFFAEFFFFFFFFEFFFFFFFFFFFFFFFFC2
:10046000FFFFFFFFFFFFFFFFFFFFFFFDFFFFFFFF9E
:10047000FFFFFFFFFFFFFFFFFFFFFFFFFFFEE9D4CE
:100480006B9679D7BDD7FDEFBDF7DFFFEEFFFFFF1E
:10049000FFEFFFFFFFFBEEFF77FDFFDFF6EF7DEBEA
:1004A000FF56BDCBF5F6FDFFFFFFFFFFFFFFFFFF90
:1004B000FFFFFFFFFFFFFFFFFFFFFFFFFFFFFFFF4C
:1004C000EFFFFFFFFFFFFFFFFFFFFFFFFFFFFFFF4C
:1004D000FBFFFFFFFFFFFFFFFFFFFFFFFFFFFFFF30
:1004E000FFFFFFFFFFFFFFFFFFFFFF7FFFFFFFFF9C
:1004F000FFFFFFFFFFFFEFFFFFFFFFFFFFFFFFFF1C
:10050000FFFFFDFEFFFAF7FDEFF7DEEFFFBFEEFFA7
:10051000DFBFFFDFFEBFFFAFFFDFFBFFF6FFFBFF2D
:10052000FCFFFFFFFFFFFFFFFEFFFFFFFFFFFFFBE3
:10053000FFFFFFFFFFFFFFFFFFFF80C08000008085
:10054000C080000080C080000070787878787E7F5E
:100550007E787878787054D1B4783CF034F880782C
:10056000EAE07400000058BC163F3F16BC5800007B
:1005700000000000985CB65F5FB65C980000000069
:1005800070187DB6BC3C3CBCB67D187000001EB82F
:100590007D363C3C3C3C367DB81E00009C9E5E7621
:1005A000375F5F37765E9E9C00001C5EFEB6375F4D
:1005B0005F37B6FE5E1C00004060F05078585878F7
:1005C00050F0604000004060D0705878785870D08B
:1005D0006040000000000000241818240000000003
:1005E0000000000081002418182400810000000091
:1005F00000248118245A5A2418812400004200241F
:10060000814A3CA4253C4A81240042F00FFFFFFFB1
:10061000FFFFFFFFFFFFFFFFFFFFFFFFFFFFFFFFEA
:10062000FFFFFFFFFFFF7F3F1F07010000000000EB
:1006300000000000000103070000000000000000AF
:100640000000000000010307FF010000000000009F
:100650000000003FFFFF0F07010100000000000045
:100660000000000003070700000000000000000079
:1006700000000000000707273F3FFFFFFFFFFFFFCD
:10068000FFFFFFFFFFFFFFFFFFFFFFFFFFFFFFFF7A
:10069000FFFFFFFFFFFFFFFFFFFFFFFFFFFFFFFF6A
:1006A000FFFFFFFFC30338FEFFFFFFFF1F1F1FFFFA
:1006B000FEFCF8E00000000FFFFFFFFFFF1F1F1F01
:1006C000FFFFFCFCF88000000300FFFFFF3F3FFF3F
:1006D000FFFFC000FF3F000000F0F8FCFFFF0F0F1E
:1006E0000FFFFFFFFEFCF8000000C0FEFFFFFF3F12
:1006F0001F1F1FDFDFDFDFC7E0FCFFFFFFFFFFFF84
:10070000FFFFFFFFFFFFFFFFFFFFFFFFFFFFFFFFF9
:10071000FFFFFFFFFFFFFFFFFFFFFFFFFFFFFFFFE9
:10072000FFFFFFFFFFFEE0839F3F7FFFFEE0E0E073
:10073000E1E1E18101000000007FFFFFFFFC80801C
:1007400083FFFFFFFF7F000000FFFFFFFF00007F30
:10075000FFFFFF0001000000FCFFFFFFFF000000A3
:10076000000303030303000080F8FFFFFF7F7F7097
:1007700070700383FFFFFFFFFFFFFFFFFFFFFFFF1F
:10078000FFFFFFFFFFFFFFFFFFFFFFFFFFFFFFFF79
:10079000FFFFFFFFFFFFFFFFFFFFFFFFFFFFFFFF69
:1007A000FFFFFFFFFFFFFFFFFF8E0CE8E1E3E3C366
:1007B00083039FFFFFFFF80000003FFFFFFFFF07DD
:1007C0008787E7E7E1F8FE00C0FFFFFF3F38B83852
:1007D000FFFFFFFE00F00000FFFFFFFF010000F839
:1007E000FCFCFC3C000000F0FFFFFF3F03000202A6
:1007F0003A3E3EFFFFFFFFFFFFFFFFFFFFFFFFFF50
:10080000FFFFFFFFFFFFFFFFFFFFFFFFFFFFFFFFF8
:100810009F1F1F11010101010101030101010101DC
:1008200001030F1101010101010100000101030792
:10083000070707070703000000000003070707007A
:100840000001010101010100070707070001010084
:10085000070707070000000001030707070707074E
:10086000030100000000060707070707070707073F
:10087000010001010101030F1F0F0F070303010115
:10088000010101010101071F1F3FFFFFFFF8F08673
:100890001E3EFEFCF0C00000063C7CF8F0E080004C
:1008A000000C7CFCFCFCC00000043CFCFCF8F0806C
:1008B0000000001EFEFEFEFEFC0000000000FCFC2E
:1008C000FCFCFEFEFEFEF00000000000FCFCFCFC58
:1008D000FC0C0C0C0CFCFCF8F0F000000000FCFC24
:1008E000FCFC7C0C0C0C0C0C0C0C000000E0FCFE66
:1008F000FE7E0E0E0C0CFCFCFCFC7000000080E088
:10090000F0F0781C0C0ECEFEFEFE7E1881FFFFFF7D
:10091000FFFCF8E3C71F7FFCF8E080010F1F7FFF9B
:10092000FEF8F8317FFFFFFFF8C00000030F3FFF24
:10093000FCF0C000077FFFFFFFC000000000FFFFCA
:10094000FFFF01031FFFFFFC0000000000FFFFFF8F
:10095000FF000000F0FFFFFFFF070000F0FFFFFFB8
:10096000FF3F3030303030000000C0F8FEFFFF7F26
:100970006160E0F09E1F0F0F030000107C7F7F7FFF
:1009800067E1E0E1E00919F9F9F9F8FEFFFFFFFF7F
:10099000FFFFFFFFFFFEFCF0E38F1F7E7C70400136
:1009A000071F7F7E70600123CF1F3F7C600030E017
:1009B000831F3F7E7C7C7F7F7F7F0000F0007F7FF6
:1009C0007F7F0CECEC0F7F7F7F600000007F7F7FDC
:1009D000434040407F7F3F1F800000787F7F7F7FC4
:1009E0004140404040000000607C7F7F0F010000DC
:1009F000707E7F1F0FC10020787878686060203893
:100A00001E9FC7E3F1FCFEFFFFFFFFFFFF0000009A
:100A10000036000102000004000000000000000099
:100A20000038000000000037000202020202020249
:100A30000202020102040810202004100800112400
:100A40001FBECFE5D2E0DEBFCDBF10E0A0E6B0E034
:100A5000E0E1FFE102C005900D92A63AB107D9F797
:100A600020E0A6EAB0E001C01D92A53BB207E1F785
:100A70001BD24CCAC5CACF93DF9390E0FC01ED5C5A
:100A8000F54F2491FC01E75DF54F84918823C1F077
:100A900090E0880F991FFC01ED5DF54FC591D49151
:100AA000FC01E35EF54FA591B4919FB7F89488815E
:100AB000E22FE0958E2388838C91E823EC939FBFEF
:100AC000DF91CF910895C298C098C29AC09A0895B4
:100AD00020E030E090E0AC01022E01C0440F0A9407
:100AE000EAF747FF02C0C09A01C0C098C29AC298F4
:100AF0002F5F3F4F2830310571F7C09AC29AC298D4
:100B00000895C29AC09AC098C2980895CF93C82FEA
:100B1000F8DF88E7DDDF80E0DBDF8C2FD9DFCF91E6
:100B2000D2CFEFDF88E7D4DF80E4D2CFE4E1FAE090
:100B30008491E4E3FAE09491EAE2FAE0E491EE23AE
:100B400019F1882399F0823071F028F4813071F422
:100B50008AB58F770AC0833011F0843039F48CB5B0
:100B60008F7D8CBD03C08AB58F7D8ABDF0E0EE0F0E
:100B7000FF1FE35FF54FA591B491EC91E92381E06C
:100B800090E021F480E0089580E090E0089517B8A7
:100B9000369A3699FECF84B125B190E0922B089514
:100BA000683030F4E62FF0E0E356FF4F908101C04B
:100BB00090E0FA01E80FF11D82A1982381E009F489
:100BC00080E00895663038F46230C8F4662349F056
:100BD000613051F004C0663051F0673061F080E060
:100BE000089581110CC009C0811109C002C0813073
:100BF00031F48CEF0895813011F480EF08958FE087
:100C00000895CF92DF92EF92FF92C62ED12C98E0FA
:100C1000C916D104D8F5F601E15FFF4F90E00994C1
:100C2000FA01E80FF91F82A1805882A321112EC07A
:100C30008FEFFA0181A72AC0FA01E80FF91F82A1FC
:100C40008054F3CFFA01E80FF91F82A18052EDCF53
:100C5000FA01E80FF91F82A18051E7CFFA01E80FEE
:100C6000F91F82A18850E1CFFA01E80FF91F82A194
:100C70008450DBCFFA01E80FF91F82A18250D5CF53
:100C8000FA01E80FF91F82A18150CFCFFF90EF90BA
:100C9000DF90CF900895EF92FF920F931F93CF9321
:100CA000DF931F92CDB7DEB7463009F064C07901FB
:100CB000162F282F0DEE060F083060F4A701602FC5
:100CC00080E029836DDF2981882321F0A701602F2F
:100CD00080E04EC005EE010F083060F4A701602FE0
:100CE00081E029835DDF2981882321F0A701602F1E
:100CF00081E03EC00AEC010F083060F4A701602FCC
:100D000082E029834DDF2981882321F0A701602F0C
:100D100082E02EC002EC010F083060F4A701602FC2
:100D200083E029833DDF2981882321F0A701602FFB
:100D300083E01EC007EA010F083060F4A701602FAE
:100D400084E029832DDF2981882321F0A701602FEA
:100D500084E00EC01156183070F4A701612F85E0B1
:100D600029831EDF2981882339F0A701612F85E0BF
:100D700048DF81E001C080E00F90DF91CF911F91AB
:100D80000F91FF90EF900895FC01AC0164E090E0BA
:100D900020E030E0DA01A20FB31F14968C918F3F50
:100DA00019F086300CF49F5F2F5F3F4F26303105DE
:100DB00089F761504A5F5F4F6111EACF9093A800B5
:100DC00096959695969596AB089590E02FEF30E026
:100DD000281B31099617E9F08111C49A40E0E42FED
:100DE000F0E0E217F30734F455E05A95F1F700000C
:100DF0004F5FF5CFC49840E0E42FF0E0E217F3072F
:100E000034F455E05A95F1F700004F5FF5CF9F5F3E
:100E1000E1CF08951F920F920FB60F9211242F93D6
:100E20003F938F939F93AF93BF938091B100909125
:100E3000B200A091B300B091B4003091B00023E0B3
:100E4000230F2D3720F40196A11DB11D05C026E802
:100E5000230F0296A11DB11D2093B0008093B10015
:100E60009093B200A093B300B093B4008091AC0013
:100E70009091AD00A091AE00B091AF000196A11D80
:100E8000B11D8093AC009093AD00A093AE00B093E1
:100E9000AF00BF91AF919F918F913F912F910F9094
:100EA0000FBE0F901F901895CF93DF93CDB7DEB78D
:100EB000EE970FB6F894DEBF0FBECDBF78948AB51B
:100EC00082608ABD8AB581608ABD83B7826083BF34
:100ED00083B7816083BF89B7826089BF80B7826032
:100EE00080BF80B7816080BF329A319A309A379A3A
:100EF0008CB580648CBDB89ABA9A0EE210E0BCE161
:100F0000FB2EF00EF801849101DE0F5F1F4FF012EF
:100F1000F9CF81E0B0DDBC9A86E0ADDD88E3E5E69F
:100F2000F0E09E012F5F3F4F7901D90101900D92B2
:100F30008A95E1F732E03AAF6CE369AF270183E0CD
:100F40008093AB001092AA0000E010E080EB800FCD
:100F5000DDDD80E0DBDD80E1D9DDE3DD4801969475
:100F6000982C882497948794C12CD12CF601E80DF5
:100F7000F91DE35FF94F8491ABDD7FEFC71AD70A04
:100F800080E8C816D10491F70F5F1F4F0830110594
:100F9000E9F6CCDD892BC1F66DE784E616DF6DE757
:100FA00082E313DF9FEFE9E6F8E19150E040F04083
:100FB000E1F700C000001092A6001092A70088E19F
:100FC0008093A800A091AA008A2F0A2E000C990BEA
:100FD00068E170E057D7A701B4E08E199F0920E0BF
:100FE00030E0BC01640F751FF901E60FF71FE65BE7
:100FF000FF4F1491FA01E20FF31F14832F5F3F4F4D
:101000002630310589F7B1504A5F5F4FB111E7CF04
:101010008FEF8BA38CA38DA38EA38FA388A790E1C2
:101020009B839C8398E899838AA71BA61CA61DA670
:101030001EA61FA618AA83E089AB1AAA8CE28BAB66
:101040001CAAA43018F081E08DAB01C01DAA1EAA15
:1010500088E08FAB81E088AF1A82C70195DE1092DD
:10106000A9001BAE8091A800811146C06FEF8EE6EB
:10107000ACDEEFEFF3EF21E0E150F0402040E1F78C
:1010800000C000006FEF82E8A0DE3FEF63EF71E089
:10109000315060407040E1F700C000006FEF84E61F
:1010A00094DE8FEF93EFE1E081509040E040E1F774
:1010B00000C000006BE981E088DEFFEF29EF30E03F
:1010C000F15020403040E1F700C000006FEF8CE3AA
:1010D0007CDE6FEF8CE379DE8091AA00893040F0EE
:1010E0002FEF33ED60E3215030406040E1F761CFF6
:1010F0008F5F8093AA00F4CF2DA989A990E0019673
:10110000820F911D079731F46BAD611103C081E02F
:101110008093A9008091A700482F50E09091AA00E9
:1011200029E030E0291B31092417350724F08F5FAF
:101130008093A70034C01092A700AAD44B015C0191
:10114000A7D426E030E040E050E0AFD4162F653061
:1011500008F015E08C81803111F5C501B40123E060
:1011600030E040E050E0A1D4262F30E0C90166E035
:1011700070E088D68E0D9F1DFC01E10FF11D84816A
:101180008F3F69F09CA9995F812F6EE072D6890F1D
:101190008B838DA9280F311D220F2F5F2C83809107
:1011A00060006EE080D68C5C89A7C12CD12CAC2C61
:1011B00080EB8C0DABDC80E0A9DC80E1A7DCB1DC4E
:1011C000C6019695982F8827979587959EAF8DAFE6
:1011D000212C312CB22C1091A60080E82816310465
:1011E00009F4CBC1111154C01DEE1B0D183040F491
:1011F00096E0C916D10421F4A701612F80E02FC029
:1012000015EE1B0D183040F4E6E0CE16D10421F4A3
:10121000A701612F81E034C01AEC1B0D183040F497
:10122000F6E0CF16D10421F4A701612F82E017C0A8
:1012300012EC1B0D183040F426E0C216D10421F444
:10124000A701612F83E01CC017EA1B0D183068F45A
:1012500036E0C316D10449F4A701612F84E0A0DC75
:101260008823B1F0612F80E010C01FE91B0D1830FA
:1012700078F466E0C616D10459F4A701612F85E021
:101280008FDC882329F0612F81E09CDC282F01C0AE
:1012900020E089A58B0D87FD8058EDADFEADE80FF0
:1012A000F11DE65CFE4F749070948091AB0090E06D
:1012B0006BEF7FEFE7D50196820D931D1816190687
:1012C0004CF077E0C716D10429F4F101E65CFA4F3F
:1012D000349101C030E0272980916000F101E81BC2
:1012E000F109ED30F105A0F487E0C816D10481F4CE
:1012F0008091A900882341F08A8190E06CE070E041
:10130000C1D58E0F9F1FFC01E75BFA4FA49101C06E
:10131000A0E0232B69816838E9F0C114D104D1F42D
:10132000062E000C770B26163706A4F0C1010E9787
:10133000681779077CF0F101E61BF70B8A8190E0D2
:101340006EE070E09FD58E0F9F1FFC01E954FA4FAD
:10135000449101C040E0722E7A2A8CA8B81490F013
:101360003DA9A31678F0C101881991096EE070E0DB
:10137000A6D56FA70A2D031B08AB663018F40530FD
:1013800008F464C200E0742A7CAE6BA46B10DCC06D
:101390009AA5292F092E000C330BC216D30609F08B
:1013A000D3C097FDD1C081E02CA5211180E08CA78E
:1013B000882311F091509AA7681408F49FC0712CEB
:1013C000912C94012C5A3F4F261537050CF496C0EA
:1013D0006AA5660F770B90E00196680F791FAB0145
:1013E000440F551F440F551F8DA990E09C01E3E069
:1013F000220F331FEA95E1F7421753070CF47EC022
:10140000205E3F4F241735070CF478C0880F991FD2
:10141000681B790B6F3F9FEF79078CF077FF02C055
:101420006F5F7F4F75956795072E000C880B990BA2
:1014300094D420E030E040E05FE3F8D310C077FFC1
:1014400002C06F5F7F4F75956795072E000C880B64
:10145000990B83D420E030E040E05FE3E6D34AD448
:10146000162FC301881999096EE070E0833FEFEFF2
:101470009E0764F024D5072E000C880B990B6DD4C1
:1014800020E030E040E05FE3D1D30BC018D5072E59
:10149000000C880B990B61D420E030E040E05FE362
:1014A000C4D328D467FD60E017FDAAC2663034F5C6
:1014B000143024F5612E110F7708862E660F9908D7
:1014C000C30166E070E0DED4840D951DFC01E80DDB
:1014D000F91D8481863090F46AE082E376DCC301F2
:1014E00066E070E0CFD4840D951DFC01E80DF91D78
:1014F00028E024833FEF3AA7C70146DC8AA5811183
:101500001DC02BA530E08981082E000C990B2817EF
:101510003907A4F00E968217930784F011E061E07A
:10152000812F53DC1F5F1436D1F78091AB008330DD
:1015300018F48F5F8093AB0068E86983ECA5F0E056
:10154000E55FF94F949101C090E0ECADE02B2C8168
:10155000822F86958A1107C08B818B1104C020FFD2
:1015600004C080EF03C080E001C08FE0E92B8E2B28
:10157000AFDA7FEF271A370A2DCE111105C0970178
:101580004AA56BA580E087DB9EDA9FEFC91AD90ACE
:10159000E8E0CE16D10409F00ACE2DA930E049A921
:1015A00085E090E0841B9109281739075CF0113021
:1015B00049F01BA21CA21DA21EA21FA218A681E018
:1015C0008093A60081E09A81911180E08A839E0138
:1015D0002B5F3F4F44E05FEFF90196E080818B3055
:1015E0000CF050838081883014F08F5F808391509D
:1015F00031969111F3CF41502A5F3F4F4111ECCF0B
:101600004C814031F1F082EF840F823070F42B81F5
:1016100080916000281748F030E090E00E96821725
:1016200093071CF081E08093A900469597016B8198
:1016300081E031DB882311F080E102C08C818F5F73
:101640008C838981883829F082508D3E0CF488E89B
:1016500089838CA98A51833040F48DA9823029F482
:101660008EA9843011F48FE78983F9AD2F2F30E0F4
:1016700040916000842F90E0BC016E5F7F4F621745
:10168000730754F4B901681B790BCB0163E070E078
:1016900016D4640F6093600040916000842F90E046
:1016A000BC01625071092617370744F4821B930B63
:1016B0006DEF7FEF04D4460F409360008091A90046
:1016C000813009F47FC08EA59FA9891718F48F5F18
:1016D0008EA755C083E089ABAE014D5E5F4F20E021
:1016E00030E0FA01E20FF31F94819F3F59F42F5F1E
:1016F0003F4F25303105A9F78150465051094E150D
:101700005F0569F789AB81E09DA5911180E08DA708
:1017100061E0811102C084E601C088EC56DB98AD1F
:101720008CA99130A9F49BA9891710F48E5F14C07D
:101730008EA9873038F48C5F8EAB883038F087E024
:101740008EAB04C08DA98F5F8DAB1EAA18AE16C0DC
:101750009AA9981718F482508CAB10C08EA98730C4
:1017600038F48C5F8EAB883038F087E08EAB04C0E5
:101770008DA98F5F8DAB1EAA81E088AF1EA607DA08
:101780008E3E924054F003DA863B934034F439ADF8
:10179000363018F0F9ADF650F9AFF9D9853F9140E0
:1017A00054F0F5D98E3E924034F469AD6C3618F49D
:1017B00069AD6A5F69AFBAD9892BE9F57AAD723044
:1017C000D1F52FC061E080E500DB61E084E6FDDA61
:1017D0008BAD8F5F8BAF8E3170F19FEFEBE4FDE14E
:1017E0009150E040F040E1F700C000002DA989A928
:1017F00090E00196820F911D079709F4A0CB7FEF2F
:1018000083ED90E3715080409040E1F700C000000C
:101810008091AB00882309F492CB81508093AB0078
:101820001ECC64E088ECD1DA86E08AA78091600063
:101830008A5F8BA71AAE8AA58F3F09F013CC2AAD19
:10184000223009F40FCC2F5F2AAF0CCC9EA89B014D
:101850003327911030C0802F90E066E070E012D303
:10186000840D951DFC01E20FF31F9481983044F420
:101870008DA59F3F09F486CD6EE0FBD2282F01C0D5
:1018800020E08B2D8819E82FF0E0EE30F10514F000
:101890008E50F9CF892F990F990B6EE070E0F2D23C
:1018A0008E0F9F1FFC01E20FF11D27FDFA95ED59E8
:1018B000FA4F049168CD011130C0E5E0F0E0EC0F83
:1018C000FD1FE20FF31F9081983044F48DA59F3FD8
:1018D00009F459CD6EE0CDD2282F01C020E08B2D28
:1018E0008819E82FF0E0EE30F10514F08E50F9CFB2
:1018F000892F990F990B6EE070E0C4D28E0F9F1F55
:10190000FC01E20FF11D27FDFA95ED59FA4F049104
:1019100001C0000F9A94EAF736CDA02FB0E0CD01B8
:10192000019766E070E0AED2840D951DFC01E20FD8
:10193000F31F948198303CF48DA59F3F59F16EE0E0
:1019400098D2182F01C010E08B2D8819E82FF0E0F5
:10195000EE30F10514F08E50F9CF892F990F990BC5
:101960006EE070E08FD28E0F9F1FFC01E10FF11D22
:1019700017FDFA95ED59FA4FE4910E2F10E088E02B
:1019800090E08919910902C0159507958A95E2F7AB
:10199000102F01C010E0CD0166E070E073D2840D1D
:1019A000951DFC01E20FF31F948198303CF48DA546
:1019B0009F3F19F16EE05DD2282F01C020E08B2DF2
:1019C0008819E82FF0E0EE30F10514F08E50F9CFD1
:1019D000892F990F990B6EE070E054D28E0F9F1FE4
:1019E000FC01E20FF11D27FDFA95ED59FA4F049124
:1019F00001C0000F9A94EAF701C000E0012BC3CCAC
:101A000066300CF07BCD10E055CDA0E0B0E0EAE010
:101A1000FDE08AC0EC01688179818A819B81611532
:101A200071058105910521F464E279ED8BE597E07C
:101A30002DE133EF41E050E038D049015A0127EA67
:101A400031E440E050E04DD069017A01C501B401B4
:101A50002CEE34EF4FEF5FEF44D0022F132F9A019B
:101A6000D701C601800F911FA21FB31FB7FF03C08C
:101A70000197A109B04888839983AA83BB83BC01DD
:101A8000CD019F77CDB7DEB7ECE06AC0BEDF089529
:101A900081E690E0BADF0895609361007093620080
:101AA00080936300909364000895052E97FB16F4CD
:101AB00000940FD057FD05D068D007FC02D046F443
:101AC00008C050954095309521953F4F4F4F5F4F3F
:101AD000089590958095709561957F4F8F4F9F4F9A
:101AE000089568940013E894A0E0B0E0E9E7FDE011
:101AF0001DC0EFEFE7F959016A015E23550FEE08AB
:101B0000FE2C87019B01AC019E23990F660B762F5B
:101B1000CB015DD0CDB7DEB7EAE024C02F923F9273
:101B20004F925F926F927F928F929F92AF92BF92ED
:101B3000CF92DF92EF92FF920F931F93CF93DF9399
:101B4000CDB7DEB7CA1BDB0B0FB6F894DEBF0FBEF6
:101B5000CDBF09942A88398848885F846E847D8443
:101B60008C849B84AA84B984C884DF80EE80FD8045
:101B70000C811B81AA81B981CE0FD11D0FB6F894BB
:101B8000DEBF0FBECDBFED010895A1E21A2EAA1B44
:101B9000BB1BFD010DC0AA1FBB1FEE1FFF1FA2171D
:101BA000B307E407F50720F0A21BB30BE40BF50B1A
:101BB000661F771F881F991F1A9469F760957095A3
:101BC000809590959B01AC01BD01CF010895DF93F5
:101BD000CF939F92A0E49A2E0024D001E001F0015F
:101BE00016950795F794E794D794C794B794A7945C
:101BF00048F41068A20FB31FC41FD51FE61FF71FBC
:101C0000081E191E220F331F441F551F661F771F02
:101C1000881F991F9A9421F79D01AE01BF01C00151
:101C200011249F90CF91DF9108955058BB27AA2788
:101C30000ED0E5C0D6D030F0DBD020F031F49F3F9D
:101C400011F41EF4CBC00EF4E095E7FBC1C0E92F00
:101C5000E7D080F3BA17620773078407950718F077
:101C600071F49EF5FFC00EF4E0950B2EBA2FA02D57
:101C70000B01B90190010C01CA01A0011124FF2739
:101C8000591B99F0593F50F4503E68F11A16F04034
:101C9000A22F232F342F4427585FF3CF4695379533
:101CA0002795A795F0405395C9F77EF41F16BA0BF8
:101CB000620B730B840BBAF09150A1F0FF0FBB1FA6
:101CC000661F771F881FC2F70EC0BA0F621F731FEF
:101CD000841F48F4879577956795B795F7959E3F4C
:101CE00008F0B3CF9395880F08F09927EE0F9795DA
:101CF0008795089504D06894B111B5C0089598D01F
:101D000088F09F5790F0B92F9927B751A0F0D1F0E4
:101D1000660F771F881F991F1AF0BA95C9F712C06E
:101D2000B13081F09FD0B1E008959CC0672F782F2B
:101D30008827B85F39F0B93FCCF3869577956795DA
:101D4000B395D9F73EF490958095709561957F4F46
:101D50008F4F9F4F0895E89409C097FB3EF49095EC
:101D60008095709561957F4F8F4F9F4F9923A9F074
:101D7000F92F96E9BB279395F69587957795679503
:101D8000B795F111F8CFFAF4BB0F11F460FF1BC047
:101D90006F5F7F4F8F4F9F4F16C0882311F096E9DA
:101DA00011C0772321F09EE8872F762F05C0662388
:101DB00071F096E8862F70E060E02AF09A95660F41
:101DC000771F881FDAF7880F9695879597F90895FA
:101DD00097F99F6780E870E060E008959FEF80ECDE
:101DE000089500240A941616170618060906089581
:101DF00000240A9412161306140605060895092EE7
:101E00000394000C11F4882352F0BB0F40F4BF2B55
:101E100011F460FF04C06F5F7F4F8F4F9F4F089595
:101E200057FD9058440F551F59F05F3F71F047958B
:101E3000880F97FB991F61F09F3F79F08795089570
:101E4000121613061406551FF2CF4695F1DF08C08F
:101E5000161617061806991FF1CF869571056105AC
:101E600008940895E894BB2766277727CB0197F954
:101E70000895002480FD060E660F11F08695D1F7B7
:101E8000802D08950024552704C0080E591F880F7F
:101E9000991F009729F076956795B8F37105B9F702
:101EA000802D952F0895991B79E004C0991F9617EE
:101EB00008F0961B881F7A95C9F78095089597FBBF
:101EC000072E16F4009406D077FD08D00BD007FC3F
:101ED00005D03EF4909581959F4F0895709561953A
:101EE0007F4F0895AA1BBB1B51E107C0AA1FBB1F50
:101EF000A617B70710F0A61BB70B881F991F5A9596
:101F0000A9F780959095BC01CD010895F894FFCF75
:101F100040010000008800101000000000000002D6
:101F2000020202020204040404040404040404047B
:101F300004FFFFFFFFFFFFFFFFFFFFFFFF34FF0076
:101F4000000000000003002C000000080180402079
:061F50001008040201006C
:00000001FF
