:100000007DC597C596C595C594C575C992C591C559
:1000100090C58FC58EC58DC58CC58BC58AC514C7C7
:1000200015C716C717C718C719C71AC7FFFFFFFF9D
:10003000FFFFFFFF0000000000000000FE010101C3
:100040000101010102020202020202020303030390
:100050000303030304040404040404040505050560
:100060000505050506060606060606060707070730
:100070000707070708080808080808080909090900
:10008000090909090A0A0A0A0A0A0A0A0B0B0B0BD0
:100090000B0B0B0B0C0C0C0C0C0C0C0C0D0D0D0DA0
:1000A0000D0D0D0D0E0E0E0E0E0E0E0E387DFFFFF9
:1000B000FAF67C3800387DFFFA7438003078FDFE9F
:1000C000FCF4683001000000000000000000008027
:1000D00080000000000000000000000000000000A0
:1000E00000000000000040B0B04000000000000030
:1000F000000000000000000000000000000054AB01
:10010000AB540000000000000000000000000000F0
:100110000000001818247EA5A57E241818000000F1
:100120000000000000000000181824182424FF24F8
:1001300024FF24241824181800000000181824187C
:10014000241824183C24FFA5A5FF243C18241824B7
:100150001824181800000000000000000000000132
:10016000010000000000000000000000000000008E
:10017000000000000000020D0D0200000000000061
:1001800000000000000000000000000000002AD570
:10019000D52A000000000000000000000000000060
:1001A000000000003EE3C1C1C1C1C1C1C1C1C1C1A4
:1001B000C1C1C1C1C1C1C1C1C1C1C1C1C1C1C1C12F
:1001C000C1C1C1E3FFFFFFFFC18082BE8280BE804C
:1001D000BE8488BE8086B88680808080BEAA9480D7
:1001E0009CA2A29C80BE848884BE80BEAA9480BE4D
:1001F000AAA280BE9AAC80C1FFFFFFFFE3C1C1C1CC
:10020000C1C1C1C1C1C1C1C1C1C1C1C1C1C1C1C1DE
:10021000C1C1C1C1C1C1C1C1C1C1E33E0000000033
:1002200000000000FF0100000000000000000000CE
:1002300000000000000000000000000000000000BE
:1002400000000000000000000000000000000000AE
:10025000000000000000000000000000000000009E
:10026000000000000000000000000000000000008E
:10027000000000000000000000000000000000007E
:10028000000000000000000000000000000000006E
:100290000000000000000000000001FF000000005E
:1002A00000000000FF00000000000000FF7F7F7FD3
:1002B0007F7F7F810000000000000000FF7F7F7FC4
:1002C0007F7F7F810000000000000000FF7F7F7FB4
:1002D0007F7F7F810000000000000000FF7F7F7FA4
:1002E0007F7F7F810000000000000000FF7F7F7F94
:1002F0007F7F7F810000000000000000FF7F7F7F84
:100300007F7F7F810000000000000000FF7F7F7F73
:100310007F7F7F8100000000000000FF00000000E0
:1003200000000000FF0000000000000000000000CE
:1003300000000000000000000000000000000000BD
:1003400000000000000000000000000000000000AD
:10035000000000000000000000000000000000009D
:10036000000000000000000000000000000000008D
:10037000000000000000000000000000000000007D
:10038000000000000000000000000000000000006D
:100390000000000000000000000000FF001C3EFE06
:1003A0007EB61C04FF00000000000000FF7F7F7F7E
:1003B0007F7F7F810000000000000000FF7F7F7FC3
:1003C0007F7F7F810000000000000000FF7F7F7FB3
:1003D0007F7F7F810000000000000000FF7F7F7FA3
:1003E0007F7F7F810000000000000000FF7F7F7F93
:1003F0007F7F7F810000000000000000FF7F7F7F83
:100400007F7F7F810000000000000000FF7F7F7F72
:100410007F7F7F8100000000000000FF001C3EFE87
:100420007EB61C04FF000000000000000000000079
:1004300000000000000000000000000000000000BC
:1004400000000000000000000000000000000000AC
:10045000000000000000000000000000000000009C
:10046000000000000000000000000000000000008C
:10047000000000000000000000000000000000007C
:10048000000000000000000000000000000000006C
:100490000000000000000000000000FF001C3EFE05
:1004A0007EB61C04FF00000000000000FF7F7F7F7D
:1004B0007F7F7F810000000000000000FF7F7F7FC2
:1004C0007F7F7F810000000000000000FF7F7F7FB2
:1004D0007F7F7F810000000000000000FF7F7F7FA2
:1004E0007F7F7F810000000000000000FF7F7F7F92
:1004F0007F7F7F810000000000000000FF7F7F7F82
:100500007F7F7F810000000000000000FF7F7F7F71
:100510007F7F7F8100000000000000FF00000000DE
:10052000000000007FC0808080808080808080808C
:1005300080808080808080808080808080808080BB
:1005400080808080808080808080808080808080AB
:10055000808080808080808080808080808080809B
:10056000808080808080808080808080808080808B
:10057000808080808080808080808080808080807B
:10058000808080808080808080808080808080806B
:1005900080808080808080808080C07F0E1B7F7FF5
:1005A0003F1B0E000E1B7F3F3F5B0E000E5B3F3F6D
:1005B0007F1B0E00020E1B7F3F5F0E00020E5B3F93
:1005C0007F1F0E00020E7B3F7F5F0E000E1F7F7F9E
:1005D0003F1F0E000E1F7F3F3F5F0E000E5F3F3F2D
:1005E0007F1F0E000E5F7F3F7B0E02000E1F7F3FBE
:1005F0005B0E02000E5F3F7F1B0E02000C1E2A6E78
:100600002A1E0C00001E2567251E00000E1F2567F0
:10061000251F0E000C1E2A6E2A1E0C00001E2567C8
:10062000251E00000E1F2567251F0E000C1E2A6EBA
:100630002A1E0C00001E2567251E00000E1F2567C0
:10064000251F0E000C1E2A6E2A1E0C00001E256798
:10065000251E00000E1F2567251F0E00AE2000B0CE
:10066000C8001040813FA1A6A83FA4D300D5F0D96F
:1006700022DA12DB208D14AFF83C05017FD015453E
:100680004E255509D000FDFF51536455054D4EC50B
:1006900055001000F81D14531DF014147821551F37
:1006A000FF00FFFFFFFFFFFFFFFFFFFFFFFFFFFF59
:1006B000FFFFFFFFFFFFFFFFFFFFFFFFFFFFFFFF4A
:1006C000FFFFFFFFFFFFFFFFFFFFFFFFFFFFFFFF3A
:1006D000FFFFFFFFFFFFFFFFFFFFFFFFFFFFFFFF2A
:1006E000FFFFFFFFFFFFFFFFFFFFFFFFFFFFFFFF1A
:1006F000FFFFFFFFFFFFFFFFFFFFFFFFFFFFFFFF0A
:10070000FFFFFFFFFFFFFFFFFFFFFFFFFFFFFFFFF9
:10071000FFFFFFFFFFFFFFFFFFFFFFFFFFFFFFFFE9
:10072000FFFFFFFFFFFFFFFFFFFFFF0000000000D4
:1007300000008080808080808080000000000000B9
:100740000080808080808080808000000000000029
:100750000080808080808080808000000000000019
:100760000080808080808080808000000000000009
:1007700000808080808080808080000000000000F9
:1007800000808080808080808080000000000000E9
:1007900000808080808080808080000000000000D9
:1007A00000FFFFFFFFFFFFFFFFFFFF000000000053
:1007B0000000FFFFFFFFFFFFFFFF00000000000041
:1007C00000FFFFFFFFFFFFFFFFFF00000000000032
:1007D00000FFFFFFFFFFFFFFFFFF00000000000022
:1007E00000FFFFFFFFFFFFFFFFFF00000000000012
:1007F00000FFFFFFFFFFFFFFFFFF00000000000002
:1008000000FFFFFFFFFFFFFFFFFF000000000000F1
:1008100000FFFFFFFFFFFFFFFFFF000000000000E1
:1008200000FFFFFFFFFFFFFFFFFFFF0000000000D2
:1008300000008080808080808080000000000000B8
:100840000080808080808080808000000000000028
:100850000080808080808080808000000000000018
:100860000080808080808080808000000000000008
:1008700000808080808080808080000000000000F8
:1008800000808080808080808080000000000000E8
:1008900000808080808080808080000000000000D8
:1008A00000FFFFFFFFFFFFFFFFFFFF000000000052
:1008B0000000FFFFFFFFFFFFFFFF00000000000040
:1008C00000FFFFFFFFFFFFFFFFFF00000000000031
:1008D00000FFFFFFFFFFFFFFFFFF00000000000021
:1008E00000FFFFFFFFFFFFFFFFFF00000000000011
:1008F00000FFFFFFFFFFFFFFFFFF00000000000001
:1009000000FFFFFFFFFFFFFFFFFF000000000000F0
:1009100000FFFFFFFFFFFFFFFFFF000000000000E0
:1009200000FFFFFFFFFFFFFFFFFFFF0000000000D1
:1009300000008080808080808080000000000000B7
:100940000080808080808080808000000000000027
:100950000080808080808080808000000000000017
:100960000080808080808080808000000000000007
:1009700000808080808080808080000000000000F7
:1009800000808080808080808080000000000000E7
:1009900000808080808080808080000000000000D7
:1009A00000FFFFFFFFFFFFFFFFFFFF000000000051
:1009B0000000FFFFFFFFFFFFFFFF0000000000003F
:1009C00000FFFFFFFFFFFFFFFFFF00000000000030
:1009D00000FFFFFFFFFFFFFFFFFF00000000000020
:1009E00000FFFFFFFFFFFFFFFFFF00000000000010
:1009F00000FFFFFFFFFFFFFFFFFF00000000000000
:100A000000FFFFFFFFFFFFFFFFFF000000000000EF
:100A100000FFFFFFFFFFFFFFFFFF000000000000DF
:100A200000FFFFFFFFFFFFFFFFFFFF808080808050
:100A300080808080808080808080808080808080B6
:100A400080808080808080808080808080808080A6
:100A50008080808080808080808080808080808096
:100A60008080808080808080808080808080808086
:100A70008080808080808080808080808080808076
:100A80008080808080808080808080808080808066
:100A90008080808080808080808080808080808056
:100AA00080FF019600780196001E0196001E329884
:100AB000009B4696004B5A96004B6E8E6E8E009BA6
:100AC0006E8E6E8E009B5AC05AC05AC00000000045
:100AD000380000000000370000000000360002026D
:100AE0000202020202020202010204081020200493
:100AF00010080102000004000000000011241FBEC5
:100B0000CFE5D2E0DEBFCDBF10E0A0E6B0E0E0EB85
:100B1000FFE102C005900D92A037B107D9F720E0A0
:100B2000A0E7B0E001C01D92AB38B207E1F72DD4C9
:100B30003DCA66CAE3EFFAE08491E9EEFAE09491E7
:100B4000EFEDFAE0E491EE2319F1882399F0823079
:100B500071F028F4813071F48AB58F770AC0833040
:100B600011F0843039F48CB58F7D8CBD03C08AB50B
:100B70008F7D8ABDF0E0EE0FFF1FE852F54FA59183
:100B8000B491EC91E92381E090E021F480E00895B4
:100B900080E090E00895CF93DF9390E0FC01E8516E
:100BA000F54F2491FC01E252F54F84918823C1F066
:100BB00090E0880F991FFC01EE52F54FC591D4913A
:100BC000FC01E453F54FA591B4919FB7F894888147
:100BD000E22FE0958E2388838C91E823EC939FBFCE
:100BE000DF91CF910895C298C098C29AC09A089593
:100BF00020E030E090E0AC01022E01C0440F0A94E6
:100C0000EAF747FF02C0C09A01C0C098C29AC298D2
:100C10002F5F3F4F2830310571F7C09AC29AC298B2
:100C20000895C29AC09AC098C2980895CF93C82FC9
:100C3000F8DF88E7DDDF80E0DBDF8C2FD9DFCF91C5
:100C4000D2CF863008F08650877087B9369A3699A9
:100C5000FECF84B125B190E0922B08953FB7F89470
:100C60008091750090917600A0917700B091780006
:100C700022B708B601FE05C02F3F19F00196A11D4D
:100C8000B11D3FBFBA2FA92F982F8827820F911D22
:100C9000A11DB11DBC01CD0142E0660F771F881F69
:100CA000991F4A95D1F708958F929F92AF92BF9264
:100CB000CF92DF92EF92FF926B017C01CFDF4B016D
:100CC0005C01C114D104E104F104E9F0C7DFDC01E7
:100CD000CB0188199909AA09BB09883E9340A1054F
:100CE000B10578F321E0C21AD108E108F10888EED5
:100CF000880E83E0981EA11CB11CC114D104E1042C
:100D0000F10421F7DECFFF90EF90DF90CF90BF90FE
:100D1000AF909F908F900895FB012091610090E02B
:100D20006AE070E026D9E80FF91F40859781E681D7
:100D3000F0E06091600070E0DF011796A617B7073A
:100D4000E4F0440F440F440F490F50E0220F220FEC
:100D5000220F822F90E09A01295F3F4F2817390711
:100D600064F0695F7F4F6E177F073CF09C01295F3D
:100D70003F4F81E0241735070CF480E00895E82FF9
:100D8000DB01842F90E06AE070E0F3D8A80FB91F70
:100D900016962C911697E21780F130E0F0E0C90129
:100DA00007968E179F074CF180918900811102C030
:100DB000442321F1E21BF30B12968C91129790E0E1
:100DC00060E670E0D6D88E0F9F1F2C9130E043E094
:100DD000220F331F4A95E1F7FC01E20FF31F139630
:100DE0002C9130E053E0220F331F5A95E1F7E20FC8
:100DF000F31FE456FA4F8491089580E008958A36EF
:100E000088F4A82FA695A695A695B0E0A758BF4F41
:100E10008770E82FF0E0E859FF4F9C91808198237C
:100E200081E009F480E00895282F269526952695DF
:100E3000E82FE7708E2F90E0FC013197E730F10545
:100E400088F4E15FFF4F09948FEB0DC08FED0BC06D
:100E50008FEE09C087EF07C08BEF05C08DEF03C091
:100E60008EEF01C08FE7E22FF0E0E758FF4F90814F
:100E70008923808308952F923F924F925F926F92C1
:100E80007F928F929F92AF92BF92CF92DF92EF921A
:100E9000FF920F931F93CF93DF9300D000D000D029
:100EA000CDB7DEB78A838B011E821D82412C5B0188
:100EB00027E0A20EB11C38E0E32EF12C8D81805585
:100EC000B5DE80E0B3DE80E1B1DEABDE88E790DE48
:100ED00080E48EDECD80DE80D694DC2CCC24D794CA
:100EE000C7948D816FE03CD88F508B83612C712C1F
:100EF000362C80E86816710409F423C13A81311157
:100F000010C180918900882309F415C18FEF830DEA
:100F10008730E0F480918700813049F018F082300A
:100F200059F014C02D813E812630310561F02D81AC
:100F30003E812530310539F02D813E812430310547
:100F400041F08FEF01C080E0582E04C055245A9420
:100F500001C0512CF301EC0DFD1DE456FE4F349100
:100F600039834501212C90E0F4016181062E000CAB
:100F7000770B2D813E816217730799F43697808134
:100F8000813089F1492FB801832D9C83F8DE682FC9
:100F900070E0F401008002C0660F771F0A94E2F748
:100FA00020C06F5F7F4F2D813E8162177307D9F498
:100FB000F40180818823B9F036978081813099F0DF
:100FC000492FB801832D9C83DADE682F70E0F4018D
:100FD0008081F701E81BF10902C075956795EA95D4
:100FE000E2F7262A9C819F5FFAE08F0E911C9530D4
:100FF00009F0BACF2981222A2D813E81232B99F035
:10100000F301E45DFF4F84918E3F19F08F3F11F49F
:101010000AC081E03B81830FF2DE882339F044204F
:1010200021F085E503C080E001C08AEA8229209191
:101030006000022E000C330B6216730624F1A90126
:10104000495F5F4F46155705F4F040916100042E4B
:10105000000C550B6D817E8164177507A1F4E0913A
:1010600063000E2E000CFF0BAF0193E0440F551FE1
:101070009A95E1F7F301E21BF30BE40FF51FE4553A
:10108000FF4F249001C0212C282A809162008130DA
:1010900009F043C078E06716710408F43EC08D8102
:1010A0009E81892BD1F1C901089768167906ACF1A8
:1010B0004796861597058CF140916100042E000C2F
:1010C000550BCA010197ED81FE81E817F9072CF154
:1010D00002968E179F070CF1F701E21BF30BE60D4A
:1010E000F71D81E090E0841B950B2D813E81820FDE
:1010F000931F68E470E03DD7E80FF91F809163000B
:10110000082E000C990B68E170E033D78E0F9F1FFB
:10111000FC01EC53FF4F849101C080E082298521BE
:1011200009C03A81313039F4F301EC0DFD1DE4566C
:10113000FE4F84915DDD61E046267FEF671A770AF6
:10114000D7CE51DD2D813E812F5F3F4F3E832D83D2
:101150002830310509F0B2CE26960FB6F894DEBFDE
:101160000FBECDBFDF91CF911F910F91FF90EF90F8
:10117000DF90CF90BF90AF909F908F907F906F90B7
:101180005F904F903F902F900895CF92DF92EF9213
:10119000FF920F931F93CF93DF93FB0190E06AE0E0
:1011A00070E0E7D6E80FF91F2085022E000C330B04
:1011B0002150310943E0220F331F4A95E1F787811F
:1011C000280F311D7901A901495F5F4F37FD7A0171
:1011D00093E0F594E7949A95E1F757FF03C0A901CE
:1011E000425F5F4F6A0183E0D594C7948A95E1F727
:1011F000C681D0E0FE01E45DFF4F049182E0800FE4
:10120000823068F08E2D6FE0ABD6800FF8DD182F9E
:101210008C2D6FE0A5D6800FF2DD180F01C010E015
:10122000FE01ED5CFF4FC49182E08C0F823068F0CC
:101230008E2D6FE095D68C0FE2DDD82F8C2D6FE0D0
:101240008FD68C0FDCDD8D0F180F812FDF91CF91A2
:101250001F910F91FF90EF90DF90CF9008958091B4
:101260008900811106C066DC0197E9F781E080936F
:1012700089000895E0E6F0E086EF808381831282A2
:10128000138214821582089590E02FEF30E0281B1E
:1012900031099617E9F08111C49A40E0E42FF0E09B
:1012A000E217F30734F455E05A95F1F700004F5F69
:1012B000F5CFC49840E0E42FF0E0E217F30734F4F0
:1012C00055E05A95F1F700004F5FF5CF9F5FE1CFF2
:1012D0000895CF93C1E061E08C2FD6DF62E08C2FC0
:1012E0008095D2DFCF5FCF3FB1F76CE271E080E055
:1012F00090E0CF91D9CC1F920F920FB60F9211248C
:101300002F933F938F939F93AF93BF9380917100DF
:1013100090917200A0917300B091740030917000B0
:1013200023E0230F2D3720F40196A11DB11D05C028
:1013300026E8230F0296A11DB11D20937000809313
:10134000710090937200A0937300B0937400809129
:10135000750090917600A0917700B0917800019689
:10136000A11DB11D8093750090937600A093770026
:10137000B0937800BF91AF919F918F913F912F9142
:101380000F900FBE0F901F901895CF93DF93CDB79E
:10139000DEB7E7970FB6F894DEBF0FBECDBF7894E7
:1013A0008AB582608ABD8AB581608ABD83B7826052
:1013B00083BF83B7816083BF89B7826089BF80B7ED
:1013C000826080BF80B7816080BF329A319A309A44
:1013D000379A8CB580648CBDB89ABA9A0CE516E041
:1013E0008CE1F82EF00EF801849120DC0F5F1F4F86
:1013F000F012F9CF81E0CFDB86E0CDDB89E0CBDBFB
:10140000BC9AFE013A96CE01CC96DF0119971C9248
:1014100011961C9211961C9211961C9211961C9278
:1014200011961C9211961C9211961C9211961C9268
:1014300010823A96E817F90741F783E08093870016
:101440008FEF80938A00109289001C861E8A18A252
:101450001AA6BE016F5F7F4F81E00DDD6BDB892B2C
:10146000C1F7FDDE9E01255C3F4F3CAB2BAB80916D
:101470008A008230A4F487FF06C080918A008F5FC3
:1014800080938A000EC015E064E680E5FDDE6CE224
:1014900071E080E090E008DC1150B1F7EECF1092DF
:1014A0008A001C861E8A18A21AA680918A0090E0E3
:1014B0006EE070E05ED5A9E7B0E020E030E0F90131
:1014C000E80FF91FE858F94FE491ED932F5F3F4F74
:1014D0002E303105A1F7CEDE1B8289E08F8327E015
:1014E0002987188692E09E839D831C821A8281E060
:1014F0008D8738E3398B8B8B1A8A8F8B38E73B8F3C
:101500009D8F1C8E89A397E79DA32FA31EA28BA757
:1015100088E18FA785E089AB18AA0CDB892B09F439
:101520009EDE80918900811108C0809188008831F9
:1015300040F58F5F8093880026C086E082DB8E3E78
:1015400092400CF469C386E07CDB863B93400CF050
:1015500063C31E8289E075DB8E3E92400CF46FC33C
:1015600089E06FDB863B93400CF069C381E08D839B
:10157000E1DA892BD1F680916200882309F470C3E7
:10158000D4CF1092880080918900882309F44BC041
:101590004F8150E0BA016A5F7F4F2985022E000C0F
:1015A000330B13E0220F331F1A95E1F78885280FBC
:1015B000311D690186E0C80ED11CFE017396F12C25
:1015C000CF010797DC018C91813029F1CF0102977F
:1015D000DC018C9190E068177907ECF0069684178F
:1015E0009507CCF08081082E000C990BB3E0880F92
:1015F000991FBA95E1F78F0101501109D8011C918B
:10160000810F911DC816D90634F0069682179307EC
:1016100014F0FF24F3943A968BA99CA9E817F907D4
:1016200079F6F1108BC18091880080FD9BC1DE01AD
:1016300017966D01FE013196FEABEDAB9E01275F63
:101640003F4F79018E01085F1F4F2E0136E0430E98
:10165000511C1E0154E0250E311C3E0185E0680E30
:10166000711CB12CD6018C90F701A080D8019C9000
:10167000F20180818130D9F421E0280DD6012C932C
:10168000EA2D0A2C000CFF0BAF015695542F44276E
:101690005795479530E0C9010696FA01E80FF91F02
:1016A000EE55F94F2491FA01E80FF91F1AC0811184
:1016B0001CC09FEF980DF60190834A2D0A2C000C58
:1016C000550B5695542F442757954795892F90E0F1
:1016D000FA01E80FF91FEE55F94F2491840F951F79
:1016E000FC01EE5DF84F849102C080E020E0492DBE
:1016F00050E0EFE7F0E0092C01C0EE0F0A94EAF7A2
:10170000E22381F428E030E0241B350BEFE7F0E022
:1017100002C0F595E7952A95E2F7E82391E019F4E0
:1017200090E001C091E0BE016F5F7F4F8B2D9FABBA
:101730002CDD9FA9980FBB2041F0BE016F5F7F4F4A
:101740008B2D9FABE9DA9FA901C080E0980F69F06B
:10175000BB2009F4BBC237D322E030E040E050E0C8
:101760003FD3D2016C93D6018C92F30180818130FA
:10177000D9F4D8018C91873020F0F8011082D7017C
:101780008C918F5F8C93D8018C91833000F1E8E0CD
:10179000F0E0E81BF1094FE750E002C0559547958E
:1017A000EA95E2F781E019C0882311F0812C3EC050
:1017B000F8018081882319F08150808393C2E7E08B
:1017C000D801EC93D7018C9181508C938BC24FE759
:1017D00001C0440F8A95EAF780E0F701208190E08C
:1017E000820F911D27FD9A959695982F882797959A
:1017F0008795D6015C9120E030E0850F911DFC01BA
:10180000E20FF31FE115B4E0FB0720F4EE55F94FAA
:10181000E49101C0E0E0E42319F08824839406C039
:101820002F5F3F4F2730310551F7C0CFBE016F5FAB
:101830007F4F8B2DAADC880EBB2031F0BE016F5F7D
:101840007F4F8B2D69DA01C080E0880D79F0BB20D5
:1018500009F440C2B8D222E030E040E050E0C0D20B
:10186000F3016083D701AC92F801908280918800E7
:10187000B1101CC080FD47C0D3018C91813019F498
:10188000F101108205C0811103C0E6E0D101EC93A3
:10189000D2018C91813021F429E0F10120830DC027
:1018A00081110BC0E3E0D101EC9307C0882311F054
:1018B0008C30E9F4D1011C921AC09A85898191116A
:1018C0000FC0823050F4F3019081923021F4D201A4
:1018D0009C91923011F08F5F06C0B1E0BA8713C0BF
:1018E000882319F0815089830EC01A860CC066E0E7
:1018F00051D3911108C0EDA9FEA98081823008F072
:10190000EDC18F5F8083B394BAE0CB0ED11CEDA9FB
:10191000FEA93A96FEABEDABFAE0EF0EF11C065FC6
:101920001F4F2AE0420E511C3AE0230E311C5AE0B0
:10193000650E711C85E0B81295CE14C0CADC80918A
:101940008700811140C168EC70E080E090E0ACD984
:1019500015E064E684E698DC64E681E095DC1150ED
:10196000C1F76BCD80918800982F977F11F080315F
:1019700089F49091620092306CF0209163002230E3
:1019800024F42F5F2093630005C0109263009150F0
:1019900090936200837009F0E9C080916200813009
:1019A00009F0E4C01091630012300CF0D3C0113084
:1019B00009F0CCC090916100492F440F440F440FAF
:1019C0008091600088248394880E912C6AEF640FC4
:1019D00070E02401A6E04A0E511C3B01B5E16B0EFC
:1019E000711CFE0139961F01DF0151E02C91FD01B0
:1019F00032916F017D01F2E0EF1AF108F701E0800A
:101A0000F12C5701F7E0AF0EB11CA814B904F4F0A3
:101A1000220F220F220F230F30E05901E7E0AE0E14
:101A2000B11CA616B70694F04E145F047CF0621643
:101A3000730664F01C92F60110829D012750310953
:101A4000F9010081013011F0F90150831A962BA998
:101A50003CA9A217B30751F66AEF680F70E04F5F19
:101A600050E06B0135E1C30ED11C5A01A6E0AA0E6D
:101A7000B11C01E0F1013081D1017E907D01D101E5
:101A80001297AC91B0E04D01E7E08E0E911C8616E6
:101A90009706ECF0232F220F220F220F720E272D14
:101AA00030E04901F7E08F0E911C841695067CF01A
:101AB000CA16DB0664F0A216B3064CF0D1011C92E4
:101AC000F701108217972C91213009F00C932AE02E
:101AD000220E311CABA9BCA92A163B0659F6282FA9
:101AE000880F330B7901B8E0EB1AF108F7FE04C058
:101AF0007901E1E0EE1AF10873E0F594E7947A9544
:101B0000E1F7DE2C0FEF090F31F08FEF800F6FE060
:101B100027D28E0D89D9802F6FE022D2C82ECE0C0D
:101B20008C2D82D9063031F081E0800F6FE018D221
:101B30008E0D7AD9D11004C081E08C0D75D906C004
:101B40008FEF8C0D71D9FEE0DF12F6CF1F5F10937F
:101B500063000CC08FDB1DE201E061E0802F811B80
:101B600093DB62E0812F90DB1150B9F78091880000
:101B700080FD1FC0BE016F5F7F4F80E07CD98091E8
:101B800089008130B1F482E08093890002EA1AE092
:101B9000F80131966491F801849176DB0E5F1F4F56
:101BA000FAE00E3C1F07A1F764EF71E080E090E0DF
:101BB0007BD88A818130D9F480918700882339F0DD
:101BC00088DB8091870081508093870084CC81DB03
:101BD00068EC70E080E090E067D815E064E684E6A9
:101BE00053DB64E681E050DB1150C1F726CC8091D5
:101BF00088008C3009F091CC8C85882309F48DCC39
:101C00008E89882309F489CC88A1882309F485CC9E
:101C10008AA581112CCC81CC86E013D8853F9140D8
:101C200044F086E00ED88E3E92401CF481E08E8314
:101C300091CC8F81877009F08DCC82E0F8CF89E05C
:101C400000D8853F91403CF089E0FBD78E3E924022
:101C500014F41D828DCC888581118ACC82E087CCDA
:101C60008F8190E0039653E0959587955A95E1F71B
:101C7000880F880F880F809360008985082E000CDC
:101C8000990B63E0880F991F6A95E1F72885820F09
:101C9000911D9C012D5F3F4F37FF02C0295F3F4FD1
:101CA00043E0359527954A95E1F72093610085E05B
:101CB000809362001DE962E0812FE6DA61E087E14E
:101CC000810FE2DA1F5F1130B1F72FCC22E0F20171
:101CD000208349CDE2E0D301EC93C4CDADA9BEA9E8
:101CE0001C9211CE4FE750E0D8010C9002C0440F77
:101CF000551F0A94E2F7F7018081082E000C990B1A
:101D00009695982F882797958795D6015C9120E026
:101D100030E0850F911DFC01E20FF31FE115B4E0E7
:101D2000FB0720F4EE55F94FE49101C0E0E0E42315
:101D300009F073CD2F5F3F4F2730310561F736CD66
:101D4000A0E0B0E0E5EAFEE08AC0EC0168817981BC
:101D50008A819B81611571058105910521F464E2F9
:101D600079ED8BE597E02DE133EF41E050E038D09D
:101D700049015A0127EA31E440E050E04DD06901C1
:101D80007A01C501B4012CEE34EF4FEF5FEF44D080
:101D9000022F132F9A01D701C601800F911FA21F96
:101DA000B31FB7FF03C00197A109B0488883998387
:101DB000AA83BB83BC01CD019F77CDB7DEB7ECE032
:101DC0006AC0BEDF089584E690E0BADF08956093AC
:101DD0006400709365008093660090936700089597
:101DE000052E97FB16F400940FD057FD05D068D050
:101DF00007FC02D046F408C05095409530952195D7
:101E00003F4F4F4F5F4F0895909580957095619526
:101E10007F4F8F4F9F4F089568940013E894A0E080
:101E2000B0E0E4E1FFE01DC0EFEFE7F959016A011E
:101E30005E23550FEE08FE2C87019B01AC019E230B
:101E4000990F660B762FCB015DD0CDB7DEB7EAE0F8
:101E500024C02F923F924F925F926F927F928F9207
:101E60009F92AF92BF92CF92DF92EF92FF920F9329
:101E70001F93CF93DF93CDB7DEB7CA1BDB0B0FB633
:101E8000F894DEBF0FBECDBF09942A8839884888F0
:101E90005F846E847D848C849B84AA84B984C88486
:101EA000DF80EE80FD800C811B81AA81B981CE0F7D
:101EB000D11D0FB6F894DEBF0FBECDBFED01089562
:101EC000A1E21A2EAA1BBB1BFD010DC0AA1FBB1F3E
:101ED000EE1FFF1FA217B307E407F50720F0A21BB0
:101EE000B30BE40BF50B661F771F881F991F1A941D
:101EF00069F760957095809590959B01AC01BD0147
:101F0000CF010895DF93CF939F92A0E49A2E0024EF
:101F1000D001E001F00116950795F794E794D79466
:101F2000C794B794A79448F41068A20FB31FC41FB6
:101F3000D51FE61FF71F081E191E220F331F441F4F
:101F4000551F661F771F881F991F9A9421F79D01BF
:101F5000AE01BF01C00111249F90CF91DF91089580
:101F6000002480FD060E660F11F08695D1F7802DB6
:101F700008950024552704C0080E591F880F991F83
:101F8000009729F076956795B8F37105B9F7802D1C
:101F9000952F0895991B79E004C0991F961708F0B2
:101FA000961B881F7A95C9F780950895F894FFCFFE
:101FB000F6F6000001000000804020100804020135
:00000001FF
