:10000000F1C60BC70AC709C708C713C906C705C782
:1000100004C703C702C701C700C7FFC6FEC62ACD73
:100020002BCD2CCD2DCD2ECD2FCD30CD00000000F1
:100030003700AE2000B0C8001040813FA1A6A83F05
:10004000A4D300D5F0D922DA12DB208D14AF000042
:100050000000360060F6FF6F4658F0C01C363F5F68
:10006000773F1E3B386C5C7C383810601F7E58B080
:10007000E0E040401C3E7F7F7F361C001C3E7F033B
:100080007F361C001C3E0F030F361C0000226375D8
:10009000773E1C0014367775773E1C001C3E7F7D32
:1000A0007F3E1C001C3E7F7F7F361C001C3E7F6015
:1000B0007F361C001C3E786078361C001C3E7F7D1D
:1000C0007F3E1C001C3E7775773614001C3E77750A
:1000D000632200002D7F7F5B7F7F3E005A7F7F5B26
:1000E0007F7F3E002D7F7F7F6D7F3E005A7F7F7F29
:1000F0006D7F3E002D77416541413E005A77416555
:1001000041413E002D77414153413E005A774141E4
:1001100053413E00000000002400000000000000E9
:100120002400000000000000120000000000000099
:1001300012000000000000000000000000000000AD
:1001400000000000000000000000000000000000AF
:10015000000000000000000000000000000000009F
:10016000000000000000000000000000000000008F
:10017000000000000000000000000000000000007F
:10018000000000000000000000000000000000006F
:10019000000000000000000000000000000000005F
:1001A000000000000000000000000000000000004F
:1001B000000000000000000000000000000000003F
:1001C0000000000000060600000000000000020021
:1001D000000000000000000200000000000000001D
:1001E000020000000000000000020000000000000B
:1001F00000000200000000000000000200000000FB
:1002000000000000020000000000000000020000EA
:1002100000000000000000020000000000000000DC
:1002200000020000000000000000000606000000C0
:1002300000000000000000000000000000000000BE
:1002400000000000000400000000000000000000AA
:10025000000000000000000400000000000000009A
:10026000000000080000000000000000000800007E
:100270000000000000000008000000000000000076
:100280000000000000000000000000000008000066
:100290000000000000000008000000000000000056
:1002A0000004000000000000000000040000000046
:1002B000000000000000000000000000000000003E
:1002C000000000000008000000000000000008001E
:1002D0000000000000000008000000000000000016
:1002E00000000008000000000000000000080000FE
:1002F00000000000000000000000000000000000FE
:1003000000000000000000000000000000080000E5
:1003100000000000000000080000000000000000D5
:1003200000080000000000000000000800000000BD
:1003300000000000000000000000000000000000BD
:10034000000000000020000000000000000020006D
:10035000000000000000002000000000000000007D
:10036000000000200000000000000000002000004D
:10037000000000000000000000000000000000007D
:10038000000000000000000000000000002000004D
:10039000000000000000002000000000000000003D
:1003A000002000000000000000000020000000000D
:1003B000000000000000000000000000000000003D
:1003C00000000000004000000000000000000000ED
:1003D00000000000000000400000000000000000DD
:1003E00000000020000000000000000000200000CD
:1003F00000000000000000200000000000000000DD
:1004000000000000000000000000000000200000CC
:1004100000000000000000200000000000000000BC
:10042000004000000000000000000040000000004C
:1004300000000000000000000000000000000000BC
:100440000000000000C0C0000000000000008000AC
:10045000000000000000008000000000000000001C
:10046000800000000000000000800000000000008C
:10047000000080000000000000000080000000007C
:10048000000000008000000000000000008000006C
:1004900000000000000000800000000000000000DC
:1004A0000080000000000000000000C0C00000004C
:1004B000000000000000000000000000000000003C
:1004C000000000000000000000000000000000002C
:1004D000000000000000000000000000000000001C
:1004E000000000000000000000000000000000000C
:1004F00000000000000000000000000000000000FC
:1005000000000000000000000000000000000000EB
:1005100000000000000000000000000000000000DB
:1005200000000000000000000000000000000000CB
:100530000000000000000000000000000000F8FCC7
:100540000CEC2C2C2C2C2C2C2C2C2C2C2C2C2C2C4B
:100550002C2C2C2C2C2C2C2C2C2C2C2C2C2C2C2CDB
:100560002C2C2C2C2C2C2C2C2C2C2C2C2C2C2C2CCB
:100570002E2E203E000000000000003E202E2E2CDB
:100580002C2C2C2C2C2C2C2C2C2C2C2C2C2C2C2CAB
:100590002CEC0CEC2C2C2C2C2C2C2C2C2C2C2C2C3B
:1005A0002C2C2C2C2C2C2C2C2C2C2C2C2C2C2CECCB
:1005B0000CFCF80000000000000000000000FFFF3D
:1005C00000FF00000000000000E020A0A0A0A0A00C
:1005D000A020E000000000000000E0A0A0A0A0A07B
:1005E000A0A0A0A0A0A0A0A0A0A0A0A0A0A0A0A00B
:1005F000A0A0A0E000000000000000E020A0A0A05B
:10060000A0A0A0A0A0A0A0A020E0000000000000EA
:1006100000FF80BFA0A0A0A0A0A0A0A020E000009C
:100620000000000000E020E000000000000000FFEB
:1006300000FFFF0000000000000000000000FFFFBE
:1006400000FF00000000000000FF80BFBFBFBFBF71
:10065000BF80FF000000000000008080808080805C
:10066000000000000000008080800000000000000A
:100670000080808000000000000000FF00FF0000FC
:1006800000000000000000FF00FF0000000000006C
:100690000080808000000000000000FF80FF00005C
:1006A0000000000000FF80FF00000000000000FFCD
:1006B00000FFFF0000000000000000000000FFFF3E
:1006C00000FF80808080808080808080808080802B
:1006D00080808000000000000000FF00FEFE00FFA0
:1006E000000000000000001F101F000000000000BC
:1006F00000FF00FF00000000000000FF00FF0000FE
:10070000000000000000000F080F000000000000C3
:1007100000FF00FF808080808080808080800000DB
:10072000000000000080808080808080808080FFCA
:1007300000FFFF0000000000000000000000FFFFBD
:1007400000FE02020202020202020202020202028F
:1007500002020300000000000000FF00FFFF00FF96
:1007600000000000000000F010F000000000000099
:1007700000FF00FF00000000000000FF00FF00007D
:1007800000000000000000E020E000000000000089
:1007900000FF00FE02020202020202020203000047
:1007A000000000000003020202020202020202FE36
:1007B00000FFFF0000000000000000000000FFFF3D
:1007C00000FF00000000000000FE02FAFAFAFAFA48
:1007D000FA02FE0000000000000003020202020311
:1007E0000000000000000003020300000000000001
:1007F0000003020300000000000000FF00FF0000F3
:1008000000000000000000FF00FF000000000000EA
:100810000003020300000000000000FE02FE0000D2
:100820000000000000FE02FE00000000000000FFCB
:1008300000FFFF0000000000000000000000FFFFBC
:1008400000FF000000000000000F080B0B0B0B0B5B
:100850000B080F000000000000000E0A0A0A0A0A36
:100860000A0A0A0A0A0A0A0A0A0A0A0A0A0A0A0AE8
:100870000A0A0A0E000000000000000F080B0A0A16
:100880000A0A0A0A0A0A0A0B080F00000000000000
:1008900000FE02FA0A0A0A0A0A0A0A0B080F0000F6
:1008A00000000000000F080F00000000000000FF23
:1008B00000FFFF00000000000000000000003F7F7C
:1008C000606F6868686868686868686868686868A9
:1008D0006868686868686868686868686868686898
:1008E0006868686868686868686868686868686888
:1008F000E8E808F800000000000000F808E8E868F0
:100900006868686868686868686868686868686867
:10091000686F606F68686868686868686868686851
:100920006868686868686868686868686868686F40
:10093000607F3F0000000000000000000000F0F8B1
:100940001CCC2C2C2C2C2C2C2C2C2C2C2C2C2C2C57
:100950002C2C2C2C2C2C2C2C2C2C2C2C2C2C2C2CD7
:100960002C2C2C2C2C2C2C2C2C2C2C2C2C2C2C2CC7
:100970002E2E201E000000000000001E202E2E2C17
:100980002C2C2C2C2C2C2C2C2C2C2C2C2C2C2C2CA7
:100990002CEC0CEC2C2C2C2C2C2C2C2C2C2C2C2C37
:1009A0002C2C2C2C2C2C2C2C2C2C2C2C2C2C2CCCE7
:1009B0001CF8F00000000000000000000000FFFF35
:1009C00000FF00000000000000C020A0A0A0A0A028
:1009D000A020C00000000000000040A0A0A0A0A037
:1009E000A0A0A0A0A0A0A0A0A0A0A0A0A0A0A0A007
:1009F000A0A0A04000000000000000C020A0A0A017
:100A0000A0A0A0A0A0A0A0A020C000000000000006
:100A1000007F80BFA0A0A0A0A0A0A0A020C0000038
:100A20000000000000C020C000000000000000FF27
:100A300000FFFF0000000000000000000000FFFFBA
:100A400000FF000000000000007F80BFBFBFBFBFED
:100A5000BF807F00000000000000008080808000D8
:100A60000000000000000000800000000000000006
:100A70000000800000000000000000FF00FF0000F8
:100A800000000000000000FF00FF00000000000068
:100A900000008000000000000000007F807F000058
:100AA00000000000007F807F00000000000000FFC9
:100AB00000FFFF0000000000000000000000FFFF3A
:100AC00000FF808080808080808080808080808027
:100AD00080800000000000000000FF00FEFE00FF1C
:100AE000000000000000000F100F000000000000D8
:100AF00000FF00FF00000000000000FF00FF0000FA
:100B00000000000000000007A8070000000000002F
:100B100000FF00FF80808080808080808000000057
:100B2000000000000000808080808080808080FF46
:100B300000FFFF0000000000000000000000FFFFB9
:100B400000FE02020202020202020202020202028B
:100B500002020100000000000000FF00FFFF00FF94
:100B600000000000000000E010E0000000000000B5
:100B700000FF00FF00000000000000FF00FF000079
:100B800000000000000000C02AC0000000000000BB
:100B900000FF00FE02020202020202020201000045
:100BA000000000000001020202020202020202FE34
:100BB00000FFFF0000000000000000000000FFFF39
:100BC00000FF00000000000000FC02FAFAFAFAFA46
:100BD000FA02FC0000000000000001020202020113
:100BE0000000000000000001020100000000000001
:100BF0000001020100000000000000FF00FF0000F3
:100C000000000000000000FF00FF000000000000E6
:100C10000001020100000000000000FC02FC0000D6
:100C20000000000000FC02FC00000000000000FFCB
:100C300000FFFF0000000000000000000000FFFFB8
:100C400000FF0000000000000007080B0B0B0B0B5F
:100C50000B080700000000000000040A0A0A0A0A44
:100C60000A0A0A0A0A0A0A0A0A0A0A0A0A0A0A0AE4
:100C70000A0A0A040000000000000007080B0A0A24
:100C80000A0A0A0A0A0A0A0B080700000000000004
:100C900000FC02FA0A0A0A0A0A0A0A0B08070000FC
:100CA000000000000007080700000000000000FF2F
:100CB00000FFFF00000000000000000000001F3FD8
:100CC000706768686868686868686868686868689D
:100CD0006868686868686868686868686868686894
:100CE0006868686868686868686868686868686884
:100CF000E8E808F000000000000000F008E8E868FC
:100D00006868686868686868686868686868686863
:100D1000686F606F6868686868686868686868684D
:100D20006868686868686868686868686868686744
:100D3000703F1F007DFF7DFF6EFF6EFF5FFF5FFF57
:100D40004BFF4BFF4BFF74FF74FF74FF74FF64FF96
:100D500064FF64FF64FF7DFF7DFF7DFF7DFF73FF08
:100D600073FF7DFF7DFF8CFF8CFF78FF78FF64FFB2
:100D700064FF64FF7DFF7DFF7DFF7DFF73FF73FFD9
:100D80007DFF7DFF8CFF8CFF73FF73FF7DFF7DFF79
:100D90008CFF8CFF9BFF9BFF9BFFA5FFA5FFA5FF83
:100DA000AAFFAAFFAAFFAAFFAAFFA5FFA5FFA5FF0A
:100DB000A5FFA5FFA5FFAAFFAAFFAAFFAAFFAAFFFA
:100DC00000000000380002020202020202020202D7
:100DD0000102040810202004100801020000040091
:100DE0000000000011241FBECFE5D2E0DEBFCDBF62
:100DF00010E0A0E6B0E0E4E8FFE102C005900D924B
:100E0000A436B107D9F720E0A4E6B0E001C01D92F6
:100E1000AF37B207E1F757D2B3C8F2C8C298C0984B
:100E2000C29AC09A089520E030E090E0AC01022E12
:100E300001C0440F0A94EAF747FF02C0C09A01C0FC
:100E4000C098C29AC2982F5F3F4F2830310571F782
:100E5000C09AC29AC2980895C29AC09AC098C2987D
:100E60000895CF93C82FF8DF88E7DDDF80E0DBDF70
:100E70008C2FD9DFCF91D2CF823081F018F481301E
:100E800051F00895833019F0843009F008958CB53D
:100E90008F7D8CBD08958AB58F7702C08AB58F7D0E
:100EA0008ABD08951F93CF93DF93EEEDFDE09491FB
:100EB000E4EDFDE0D491EAECFDE0C491CC23D1F067
:100EC000182F992311F0892FD7DFEC2FF0E0EE0FC8
:100ED000FF1FE054F24FA591B4918FB7F894111110
:100EE00005C09C91ED2FE095E92302C0EC91ED2B1C
:100EF000EC938FBFDF91CF911F910895CF93DF9334
:100F000090E0FC01E053F24F2491FC01EA53F24FD0
:100F10008491882361F190E0880F991FFC01E45DC2
:100F2000FF4FC591D491FC01E054F24FA591B491CB
:100F3000611109C09FB7F894888120958223888326
:100F4000EC912E230BC0623061F49FB7F894388186
:100F5000822F809583238883EC912E2B2C939FBF27
:100F600006C08FB7F894E8812E2B28838FBFDF91BE
:100F7000CF910895863008F08650877087B9369AE9
:100F80003699FECF84B125B190E0922B08953FB7FA
:100F9000F8948091690090916A00A0916B00B091E3
:100FA0006C0022B708B601FE05C02F3F19F001966C
:100FB000A11DB11D3FBFBA2FA92F982F8827820FDF
:100FC000911DA11DB11DBC01CD0142E0660F771F2F
:100FD000881F991F4A95D1F708958F929F92AF92DB
:100FE000BF92CF92DF92EF92FF926B017C01CFDF35
:100FF0004B015C01C114D104E104F104E9F0C7DF45
:10100000DC01CB0188199909AA09BB09883E9340E4
:10101000A105B10578F321E0C21AD108E108F10871
:1010200088EE880E83E0981EA11CB11CC114D10467
:10103000E104F10421F7DECFFF90EF90DF90CF9035
:10104000BF90AF909F908F900895CF93DF93E82F3C
:10105000DB01842F90E06AE070E081D7A80FB91F10
:1010600016962C911697E21708F457C030E0F0E07E
:10107000C90107968E179F070CF44FC04423F1F067
:1010800011968C9111978130B1F080916F009AEF99
:10109000980F973048F08251873030F0909170006F
:1010A00080917C00891750F4D0917200D295DD0FA9
:1010B000D07EC0E005C0C0E2D0E202C0C0E0D0E017
:1010C00080917100811102C0442341F1E21BF30BB6
:1010D00012968C91129790E060E670E040D78E0FE8
:1010E0009F1F2C9130E043E0220F331F4A95E1F718
:1010F000FC01E20FF31F13962C9130E053E0220F16
:10110000331F5A95E1F7E20FF31FED0FF11DEC0FBE
:10111000F11DEC58FF4F849101C080E0DF91CF9129
:1011200008959F92AF92BF92CF92DF92EF92FF927B
:101130000F931F93CF93DF93982E6A01EA012796AE
:10114000B12CA12C062F10E088E0E82EF12C29818B
:10115000022E000C330B2017310769F44A2DB6011B
:10116000892D73DF90E0088002C0880F991F0A94D0
:10117000E2F7B82A18C02F5F3F4F2017310799F4C4
:101180008881882381F04A2DB601892D5EDF282FC2
:1011900030E08881A701481B510902C03595279589
:1011A0004A95E2F7B22AA3942A9655E0A512CFCF2A
:1011B0008B2DDF91CF911F910F91FF90EF90DF90DA
:1011C000CF90BF90AF909F900895FF920F931F9381
:1011D000CF93DF93082FF62E10E0CFEFD0E0C81B9F
:1011E000D1091F1501F1002311F081E05BDE90E0D1
:1011F000292F30E02C173D0734F485E08A95F1F76C
:1012000000009F5FF5CF80E04DDE90E0292F30E0B9
:101210002C173D0734F485E08A95F1F700009F5FB5
:10122000F5CF1F5FDECFDF91CF911F910F91FF9020
:1012300008951F920F920FB60F9211242F933F9390
:101240008F939F93AF93BF938091650090916600B9
:10125000A0916700B09168003091640023E0230FF3
:101260002D3720F40196A11DB11D05C026E8230FDE
:101270000296A11DB11D2093640080936500909398
:101280006600A0936700B093680080916900909118
:101290006A00A0916B00B0916C000196A11DB11D78
:1012A0008093690090936A00A0936B00B0936C00E8
:1012B000BF91AF919F918F913F912F910F900FBE52
:1012C0000F901F901895CF93DF93CDB7DEB7E597BA
:1012D0000FB6F894DEBF0FBECDBF78948AB582609A
:1012E0008ABD8AB581608ABD83B7826083BF83B7B8
:1012F000816083BF89B7826089BF80B7826080BF09
:1013000080B7816080BF329A319A309A379A8CB513
:1013100080648CBDB89ABA9A02E310E08CE1F82E92
:10132000F00EF80184919DDD0F5F1F4FF012F9CF91
:1013300060E081E0E3DD61E084E0E0DD60E086E044
:10134000DDDD60E089E0DADDFE013A96CE01CC9683
:10135000DF0119971C9211961C9211961C921196FE
:101360001C9211961C9211961C9211961C92119629
:101370001C9211961C9210823A96E817F90741F7D1
:1013800083E790E0F9E0F80FFDAB88EC80937D00F7
:1013900083E080937E001092700010926D00109296
:1013A0007100E3E7F0E08FEF81932DA92E13FCCFBE
:1013B00010926E0010926F0080917D008695809350
:1013C0007C00E3E7F0E08FEF81933DA93E13FCCF73
:1013D000109272001B8280E48F8383E0898795E0FE
:1013E000988782E08E838D831C8281E08D872CE438
:1013F000298B34E03B8B1C868F8B4BE44B8F9D8F6E
:101400001E8A89A34DE44DA33FA318A28BA72FA743
:1014100099AB1AA6EBEDFDE08491E1EDFDE00491BE
:10142000E7ECFDE01491112369F0811125DDE12F36
:10143000F0E0EE0FFF1FE25BFF4FA591B491EC913E
:101440000E23A1F480917100811110C09CE4998B4E
:1014500023E02B8B8BE48B8F84E08D8F3DE43DA3C9
:101460002FA39FA789AB81E08093710080917100C9
:10147000882349F186E07EDD8E3E92400CF402C462
:1014800086E078DD863B93400CF0FCC31E8289E049
:1014900071DD8E3E92400CF404C489E06BDD863B26
:1014A00093400CF0FEC381E08D8380917000823008
:1014B00020F081508093700006C0813021F410929A
:1014C00070001092720080916F00883120F48F5F5D
:1014D00080936F0002C010926F00809171008111A3
:1014E0001BC0CE0107967C01DE0111963D018E01E5
:1014F000075F1F4F6E01B8E0CB0ED11C2E01E4E058
:101500004E0E511C1E01F5E02F0E311C4E0126E03F
:10151000820E911CB12C09C18E010D5E1F4F6E0110
:101520003CE0C30ED11C7E015BE3E50EF11C60E0E4
:10153000BB24B3942F8130E0F8013297808190E092
:10154000A9014A5F5F4F481759070CF43FC0069640
:1015500082179307DCF12985022E000C330BA3E0E0
:10156000220F331FAA95E1F78885280F311DD80176
:101570008C91082E000C990BB3E0880F991FBA9537
:10158000E1F731964081840F911DA9014A5F5F4FB9
:1015900048175907DCF0069682179307BCF0809134
:1015A0007200882369F0F6018081813031F064E6B1
:1015B00084E10BDE64E682E008DED601BC9205C061
:1015C00061E0F6018081813009F460E0065F1F4F21
:1015D000FAE0CF0ED11C0E151F0509F0ABCF662324
:1015E00009F47FCF91C180916F0080FFAAC0BB201A
:1015F00009F4A7C080917D00813A08F4A2C0F401EB
:101600008081813009F0B6C02BA9E22F220FFF0B99
:10161000AF015695542F442757954795D7018C9184
:1016200090E00696FA01E80FF91FEC5CFA4F24915E
:10163000FA01E80FF91FEC54FA4F8491FCA94F2FDF
:1016400050E0EFE7F0E00CA802C0EE0FFF1F0A9495
:10165000E2F7E22309F0AAC028E030E0241B350BB2
:10166000EFE7F0E002C0F595E7952A95E2F7E82369
:1016700009F09CC080916F0080FFA9C0BB2009F4D5
:10168000A6C080917D00813A08F4A1C0D1018C915F
:101690008111C9C04FE750E0F601008002C0440F3D
:1016A000551F0A94E2F7D8018C91082E000C990B73
:1016B0009695982F882797958795F701508120E078
:1016C00030E0850F911DFC01E20FF31FE11554E09E
:1016D000F50708F0A6C0EC5CFA4FE491E42309F0AA
:1016E00019C32F5F3F4F2730310569F790916F0085
:1016F000B110E6C090FFCCC0B394BAE0EB0EF11C81
:10170000EAE06E0E711C065F1F4FFAE0CF0ED11C8F
:101710002AE0420E511C3AE0230E311C5AE0850E9D
:10172000911C85E0B81609F4EBC0D701AC90F80124
:10173000F081FBABD601BC91BCABF83008F05FCFB9
:1017400052CFF4018081813089F0811158CFB110DE
:101750000CC08985833021F48F81863509F44FCF01
:101760008FEF8A0DF70180834ACF8FEF8A0DD70163
:101770008C9345CF811117C0BBA98B2FBB0F990B41
:10178000AC015695542F442757954795F701808112
:1017900090E0FA01E80FF91FEC5CFA4F2491840FF6
:1017A000951FFC0148CF80E020E048CFBB2049F0E6
:1017B00009D322E030E040E050E011D3D4016C9333
:1017C00003C022E0F4012083D701AC9253CFF10192
:1017D0008081813089F4D6018C91873010F48F5F3D
:1017E0006FC2F6011082D8018C918F5F893009F0A9
:1017F00066C2EFEFEC934ACF811148CFD6018C91AE
:10180000882311F081505CC227E0F6012083D801C3
:101810008C9181508E3F09F053C228E0F80120835B
:1018200035CFE0E05BCF813009F060CFD6018C91FD
:10183000833008F047C24FE701C0440F8A95EAF7AA
:1018400080E0F801208190E0820F911D27FD9A959C
:101850009695982F882797958795D7015C9120E0DA
:1018600030E0850F911DFC01E20FF31FE115B4E09C
:10187000FB0720F4EC5CFA4FE49101C0E0E0E423C4
:1018800009F048C22F5F3F4F2730310561F72ECF57
:10189000D1018C91813019F4F201108205C08111BF
:1018A00003C086E0D2018C93F4018081813011F471
:1018B000E9E003C0811112C0E3E0D201EC930EC055
:1018C000992319F09C3009F00AC2D2011C92F1014F
:1018D0008081811104C2F2E0FC9301C22A858981D2
:1018E000211107C0823010F48F5F06C021E02A87E3
:1018F00003CF882319F081508983FECE1A86FCCE4F
:1019000090FF1FC080E062C168EC84E65EDC68EC9A
:101910008BE45BDC68EC82E358DC68EC89E155DC45
:1019200068EC8CE052DC60E971E080E090E055DB2F
:1019300080917E00882309F428CD815080937E0019
:1019400047CD8FEF80936E00E12CF12C5E2C80EB65
:101950008E0D87DA80E085DA80E183DA7DDA88E748
:1019600062DA80E460DA5701B694BA2CAA24B794FC
:10197000A79494E5C92E90E0D92E612C712C4701D3
:1019800091E0891A9108362C90E86916710409F4DF
:10199000FAC08091710083010A0D1B1DF801EC5CF7
:1019A000F64F882309F4DEC04490AE014F5F5F4FCD
:1019B000652D862DB6DB482AF801EC5CFE4F0491BC
:1019C000002309F485C080916E00E1E0E80FE09308
:1019D0006E00EE302CF4EC3064F4E23040F409C0D8
:1019E000E2332CF0E4332CF08D53823010F0F0E031
:1019F00001C0F1E0AE2FA695A695A695E770B0E0E0
:101A0000AD58BF4F1C9180E890E00E2E02C0959516
:101A100087950A94E2F7812309F44DC08B818111E7
:101A20004BC04F81431508F047C050E0B3016550EB
:101A30007109461757070CF43FC08985082E000C22
:101A4000990B8E159F0519F42885263030F08815DE
:101A5000990591F58885863078F14E2F50E09A01EE
:101A6000215031092730310598F4215F3F4F2F93E2
:101A70003F9308958FEB0DC08FED0BC08FEE09C023
:101A800087EF07C08BEF05C08DEF03C08EEF01C05D
:101A90008FE718231C93F13039F480917D008093F7
:101AA0007000F09372000AC06AE08AE08EDB6AE0A0
:101AB00082E38BDB0DC000E0F13051F480916F00C8
:101AC0009AEF980F973018F08251873008F400E0B1
:101AD000042980917E00581648F4A8E06A16710423
:101AE00028F4F301E458FF4F449001C0412C402AF0
:101AF000B5E05B16E9F0B51520F0E4E05E1619F1EB
:101B00002EC0F6E05F1649F027E0521228C038E0F8
:101B10006316710420F5F60120C080917D008F3B93
:101B2000F0F4F8E06F167104D0F4F601389615C0A1
:101B300080917D00853B98F428E06216710478F46A
:101B4000F60170960AC080917D008B3A40F438E02F
:101B50006316710420F4F6017896849101C080E048
:101B6000842909C00491AE014F5F5F4F652D862D1A
:101B7000D8DA802B809557D95FEF651A750A8FEFF9
:101B8000C81AD80A00CF4AD9AFEFEA1AFA0AB8E061
:101B9000EB16F10409F0DACE80917100813009F082
:101BA00062C004E31DE0F80131966491F80184916C
:101BB000645688500ADB0E5F1F4FFDE0003C1F0794
:101BC00091F782E0809371004EC08F5F982F9770DD
:101BD00020E830E002C0359527959A95E2F7E82F86
:101BE000E695E695E695F0E0ED58FF4F90812923C4
:101BF000D1F58E3351F712E001E06AE0812FE5DA8A
:101C000064E1802F811BE1DA1F5F1E33B1F768EEBC
:101C100073E080E090E0E1D980917D008B3008F4A2
:101C2000CBCB8A5080937D00803A49F0883739F0D9
:101C3000803529F0883219F08A3009F0BDCB8091C7
:101C40007E00833008F0B8CB8F5F80937E0015E074
:101C500064E680E5BADA6CE271E080E090E0BDD93C
:101C60001150B1F7A9CB80917200882309F4D2CB2F
:101C700080916F0080FDCECB8091700061E08095F7
:101C8000A4DAC8CB86E076D9853F91400CF4FFCB2F
:101C900086E070D98E3E92400CF0F9CB81E08E83C5
:101CA000F6CB89E067D9853F91400CF4FECB89E003
:101CB00061D98E3E92400CF0F8CB1D82F6CBD80154
:101CC0008C93E4CCE8E0F0E0E81BF1094FE750E04A
:101CD00002C055954795EA95E2F781E0B2CDF8014B
:101CE00037978081813059F4D7018C918A548330A1
:101CF00030F4D8018C918250833008F4108290FD2A
:101D0000FBCCF3018081811103C021E02083F4CC5E
:101D10001082F2CCBB2049F055D022E030E040E008
:101D200050E05DD0F101608303C0E2E0D101EC93AB
:101D3000EBA9D801EC93ECA9D601EC93D7CCA0E0A9
:101D4000B0E0E4EAFEE08AC0EC01688179818A8132
:101D50009B81611571058105910521F464E279ED9E
:101D60008BE597E02DE133EF41E050E038D04901B9
:101D70005A0127EA31E440E050E04DD069017A0190
:101D8000C501B4012CEE34EF4FEF5FEF44D0022FCA
:101D9000132F9A01D701C601800F911FA21FB31FF5
:101DA000B7FF03C00197A109B04888839983AA832C
:101DB000BB83BC01CD019F77CDB7DEB7ECE06AC035
:101DC000BEDF089580E690E0BADF0895609360007A
:101DD0007093610080936200909363000895052ED4
:101DE00097FB16F400940FD057FD05D068D007FC80
:101DF00002D046F408C050954095309521953F4F4C
:101E00004F4F5F4F089590958095709561957F4FE6
:101E10008F4F9F4F089568940013E894A0E0B0E0BE
:101E2000E3E1FFE01DC0EFEFE7F959016A015E232E
:101E3000550FEE08FE2C87019B01AC019E23990FE4
:101E4000660B762FCB015DD0CDB7DEB7EAE024C0BC
:101E50002F923F924F925F926F927F928F929F92BA
:101E6000AF92BF92CF92DF92EF92FF920F931F93A8
:101E7000CF93DF93CDB7DEB7CA1BDB0B0FB6F89459
:101E8000DEBF0FBECDBF09942A88398848885F8499
:101E90006E847D848C849B84AA84B984C884DF800A
:101EA000EE80FD800C811B81AA81B981CE0FD11DEE
:101EB0000FB6F894DEBF0FBECDBFED010895A1E2CD
:101EC0001A2EAA1BBB1BFD010DC0AA1FBB1FEE1FB4
:101ED000FF1FA217B307E407F50720F0A21BB30BFF
:101EE000E40BF50B661F771F881F991F1A9469F77B
:101EF00060957095809590959B01AC01BD01CF01D7
:101F00000895DF93CF939F92A0E49A2E0024D001EE
:101F1000E001F00116950795F794E794D794C794DC
:101F2000B794A79448F41068A20FB31FC41FD51F1D
:101F3000E61FF71F081E191E220F331F441F551FCF
:101F4000661F771F881F991F9A9421F79D01AE0184
:101F5000BF01C00111249F90CF91DF91089500240B
:101F6000552704C0080E591F880F991F009729F0A4
:101F700076956795B8F37105B9F7802D952F08957B
:041F8000F894FFCF03
:041F84000100000058
:00000001FF
