:10000000F5C404C503C502C501C5F5C8FFC4FEC4D7
:10001000FDC4FCC4FBC4FAC4F9C4F8C4F7C4013F6E
:100020003F3F7F00012D1B377F0001152B157F00FF
:10003000011325097F00010101017F007F4141413A
:100040007F00003E0000000000003E0000000000B5
:10005000003E0000000000000000020502FE0D0B43
:10006000FE7FB0D07F3E413EF09090909090F0E0C7
:10007000404040406040F01010F08080F0F0808000
:10008000E08080F0808080F0909090F08080F01090
:1000900010F0F09090F01010F0808080808080F060
:1000A000F09090F09090F0F08080F09090F0050546
:1000B000050505070F080F080F080F0705050505BB
:1000C000050505050505050505070F080F080F08B7
:1000D0000F070505050505050505050505070F08B5
:1000E0000F080F080F07050505050505050505059A
:1000F0000505070F080F080F080F0705050505057B
:10010000050505050505070F080F080F080F07056A
:1001100005050505050505050505F903FE000000B3
:10012000FEFF070303030303030307FFFE000000B2
:1001300000000000000000000000000000000000BF
:1001400000000000000000000000000000000000AF
:10015000000000000000000000000000000000009F
:10016000000000000000000000000000000000008F
:10017000000000000000000000000000000000007F
:10018000000000000000000000000000000000006F
:10019000000000000000000000FEABABABFE000062
:1001A000FFFF000000000000000000FFFF00000053
:1001B000000000000000000000000000000000003F
:1001C000000000000000000000000000000000002F
:1001D000000000000000000000000000000000001F
:1001E000000000000000000000000000000000000F
:1001F00000000000000000000000000000000000FF
:1002000000000000000000000000000000000000EE
:1002100000000000000000000000FF01FF000000DF
:10022000FFFF000000000000000000FFFF000000D2
:1002300000000000000000000000000000000000BE
:1002400000000000000000000000000000000000AE
:10025000000000000000000000000000000000009E
:10026000000000000000000000000000000000008E
:10027000000000000000000000000000000000007E
:10028000000000000000000000000000000000006E
:10029000000000000000000000E0BFB0BFE0000070
:1002A000FFFF000000000000000000FFFF00000052
:1002B000000000000000000000000000000000003E
:1002C000000000000000000000000000000000002E
:1002D000000000000000000000000000000000001E
:1002E000000000000000000000000000000000000E
:1002F00000000000000000000000000000000000FE
:1003000000000000000000000000000000000000ED
:100310000000000000000000000FFA1AFA0F0000B1
:10032000FFFF000000000000000000FFFF000000D1
:1003300000000000000000000000000000000000BD
:1003400000000000000000000000000000000000AD
:10035000000000000000000000000000000000009D
:10036000000000000000000000000000000000008D
:10037000000000000000000000000000000000007D
:10038000000000000000000000000000000000006D
:1003900000000000000000000000FF80FF000000DF
:1003A000FFFF060606060606060606FFFF0000001B
:1003B000000000000000000000000000000000003D
:1003C000000000000000000000000000000000002D
:1003D000000000000000000000000000000000001D
:1003E000000000000000000000000000000000000D
:1003F00000000000000000000000000000000000FD
:1004000000000000000000000000000000000000EC
:100410000000000000000000007FD5D5D57F00005F
:10042000FFFF000000000000000000FFFF00A0A090
:10043000A0A0A0E0F010F010F010F0E0A0A0A0A0AC
:10044000A0A0A0A0A0A0A0A0A0E0F010F010F0102C
:10045000F0E0A0A0A0A0A0A0A0A0A0A0A0E0F0100C
:10046000F010F010F0E0A0A0A0A0A0A0A0A0A0A07C
:10047000A0A0E0F010F010F010F0E0A0A0A0A0A06C
:10048000A0A0A0A0A0A0E0F010F010F010F0E0A05C
:10049000A0A0A0A0A0A0A0A0A0A09FC07F0000003E
:1004A0007FFFE0C0C0C0C0C0C0C0E0FF7F00AA5551
:1004B000AA55AA55AA55AA55AA55AA55AA55AA5544
:1004C000AA55AA55AA150A0502010000000000005D
:1004D00000080000000000C0C08000000000000014
:1004E00000000200000000000000000000001000FA
:1004F00000000000000000020000000000000000FA
:10050000327F776363777F7141425A544448485041
:1005100050606040003870F4F0D0D0D0D6DA867CDD
:10052000F88000FE03C12121A12121C103FEAA05FB
:1005300002FFFF0303C303030303834343434383D4
:1005400003FFFE55AA0000000000000000000000AC
:1005500020000000000000000D0B1B397DF3E1C2FC
:10056000CC986808C83060800000000000000020BF
:1005700000000000000000000000010080000000FA
:10058000A1B1B1BBBBBF9F8F9191A5A5CDCDA5A5B5
:10059000A191998F001070F0F0D0D0D0D0D0D1D6EA
:1005A000D6E300FF0007888B888B880700FFAA002E
:1005B00000FFFF000003040404040300000000E740
:1005C00000FFFF55AA00000200000000000000002C
:1005D00000000000C0F09C84C4340C0C9360010146
:1005E000C1300C0302041820C30C10E0800000008E
:1005F00000000000000200000000000000000000F9
:100600001010B9B99F9F8F8F88081226662A3A1258
:10061000120202030004CCECECFC9CE4F4D4CCCC3D
:100620008C8400FF0000A9AABAAA910000FFAA00CA
:1006300000FFFF0000212121212121E12141418FE3
:1006400000FFFF55AA0000000000000000066CD863
:10065000D8D8C8E898103B47870706068160180776
:10066000000000E0D8BC72E2C42D37C100030C10BA
:10067000E0800000000000010000004000000000D9
:10068000DBDBDBD9D9D9DBDFD85151525254545876
:10069000D8D0D041007171F1E1A1A1A12111D1E91E
:1006A000391D00FF0000D454D655D40000FFAA0025
:1006B00000FFFF000024242424A464E7242222E174
:1006C00000FFFF55EA00000000800000000040002D
:1006D00001217BA76FAF6EAC68E7980E11204080B8
:1006E0000000003DFDFBFB7ABF40C03F80601C0363
:1006F00000FF1B260C10004000000000000000005E
:1007000040C0E0F0F0FCFCFEA3A0B8BCB4B2B3B1B2
:10071000B0B0A0E0000000000000040101030604E6
:100720000D3E00FF00005D040404050000FFAA0068
:1007300000FFFF000082828281808081828282F1BC
:1007400000FFFF55EA000400042E040004004000EE
:1007500000000000010103060D1A352B56AC58B0FD
:1007600061B24C83000302050281700C0300C0706B
:100770008E816618000000000000000000000000EC
:10078000F0F8FCFCFEFE1EAFF1A9A9F9A9A9F1A29F
:10079000020408F00000000000010000000000005A
:1007A000100000FF000086810101860000FFAA0002
:1007B000007FFFC0C0C0C0C0C0C0C0C0C0C0C0C7F4
:1007C000C0FFFF55AA00200000000000000000004C
:1007D0000000001000000000000000000000010206
:1007E00005060D1A355A74D8B659A8C482030703F2
:1007F00002010000000000000008000000000000EE
:1008000021232767E7EFFFFEB1B2B2B3B2B2B1A8BE
:10081000A8A4A3E0000004100010BA10001000000B
:10082000080000FF000093A8A9AA910000FFAA54A5
:10083000A854A854A854A854A854A854A854A854D8
:10084000A854AA55AA50A04080080000000000004B
:100850000000000000000000000000000000000098
:100860001000000000000000010302040103020068
:100870000000001000000000000000000000000068
:100880000101030307070F0F111121254D45D5D590
:100890004D4D21231E0000000080000000000002DA
:1008A0000000007FC0808C928C928C80C07F000101
:1008B0000203040001020304000102030400010218
:1008C0000304000102030400010203040001020307
:1008D00005000102030405010203050501020304EA
:1008E00000010203050001020304050505050500DA
:1008F00001020304000102030400010203040001D9
:1009000002030405050505050501020304050102AE
:1009100003050501020304050102030405010203A6
:10092000050501020304050505050500000000009A
:10093000050500050505050005050000000000058A
:1009400005050505000000003700AE2000B0C80016
:100950001040813FA1A6A83FA4D300D5F0D922DA48
:1009600012DB208D14AF7DFF7DFF00C87DFF7DFF72
:1009700091FF91FF91FF91FF91FF91FF91FF91FFF7
:1009800091FF91FF91FF91FF8CFF8CFF8CFF7DFF0A
:100990007DFF7DFF69FF69FF69FF87FF87FF87FF95
:1009A0007DFF7DFF7DFF7DFF7DFF7DFF7DFF7DFF67
:1009B000007D7DFF7DFF7DFF7DFF7DFF7DFF7DFF56
:1009C0007DFF000000003600000000003800020239
:1009D00002020202020202020102040810202004A4
:1009E00010080102000004000000000011241FBED6
:1009F000CFE5D2E0DEBFCDBF20E0A0E6B0E001C091
:100A00001D92A936B207E1F740D4EFCAF9CAC298DD
:100A1000C098C29AC09A089520E030E090E0AC01FE
:100A2000022E01C0440F0A94EAF747FF02C0C09AA1
:100A300001C0C098C29AC2982F5F3F4F283031053D
:100A400071F7C09AC29AC2980895C29AC09AC09883
:100A5000C2980895CF93C82FF8DF88E7DDDF80E0E4
:100A6000DBDF8C2FD9DFCF91D2CF83E087B9369AE5
:100A70003699FECF84B125B190E0922B0895823053
:100A800081F018F4813051F00895833019F08430EA
:100A900009F008958CB58F7D8CBD08958AB58F7748
:100AA00002C08AB58F7D8ABD08951F93CF93DF93CF
:100AB000E6EEF9E09491ECEDF9E0D491E2EDF9E0A5
:100AC000C491CC23D1F0182F992311F0892FD7DFAF
:100AD000EC2FF0E0EE0FFF1FE853F64FA591B49115
:100AE0008FB7F894111105C09C91ED2FE095E92383
:100AF00002C0EC91ED2BEC938FBFDF91CF911F9152
:100B00000895CF93DF93E3EEF9E08491E9EDF9E006
:100B1000D491EFECF9E0C491CC2389F08111AFDFDF
:100B2000EC2FF0E0EE0FFF1FEE53F64FA591B491BE
:100B3000EC91ED2381E090E021F480E002C080E0C0
:100B400090E0DF91CF910895CF93DF9390E0FC0187
:100B5000E852F64F2491FC01E253F64F849188232A
:100B600061F190E0880F991FFC01EC5BF64FC59195
:100B7000D491FC01E853F64FA591B491611109C0DD
:100B80009FB7F8948881209582238883EC912E2347
:100B90000BC0623061F49FB7F8943881822F809542
:100BA00083238883EC912E2B2C939FBF06C08FB795
:100BB000F894E8812E2B28838FBFDF91CF91089581
:100BC0003FB7F8948091650090916600A09167000E
:100BD000B091680022B708B601FE05C02F3F19F09A
:100BE0000196A11DB11D3FBFBA2FA92F982F8827AD
:100BF000820F911DA11DB11DBC01CD0142E0660F08
:100C0000771F881F991F4A95D1F708958F929F9259
:100C1000AF92BF92CF92DF92EF92FF926B017C0175
:100C2000CFDF4B015C01C114D104E104F104E9F010
:100C3000C7DFDC01CB0188199909AA09BB09883EE5
:100C40009340A105B10578F321E0C21AD108E1086B
:100C5000F10888EE880E83E0981EA11CB11CC11417
:100C6000D104E104F10421F7DECFFF90EF90DF9093
:100C7000CF90BF90AF909F908F900895CF93DF93C8
:100C8000EB0190E06EE170E093D920E030E040E0CD
:100C900050E0B901680F791FFA01E60FF71FE2551E
:100CA000F74FE491DA01A20FB31FAC0FBD1F1496EA
:100CB000EC934B5F5F4F4E31510571F72F5F3F4F04
:100CC0002530310521F7DF91CF9108952F923F9282
:100CD0004F925F926F927F928F929F92AF92BF924C
:100CE000CF92DF92EF92FF920F931F93CF93DF93F8
:100CF000CDB7DEB76B970FB6F894DEBF0FBECDBF92
:100D00008A871B012FEF3FEF3A832983E12CF12CD7
:100D1000CB01845B9F4F998B888BDB01A15BBF4F1D
:100D2000BE87AD87FB01EF5AFF4FFB8BEA8B9B0120
:100D3000235B3F4F3D8B2C8B02969F8B8E8B1497A2
:100D4000B98FA88F0E2D80EB8E0D84DE80E082DEC1
:100D500080E180DE7ADE88E75FDE80E45DDEF70139
:100D6000F695FE2FEE27F795E795F987E8872DEBA7
:100D70003FEF3C832B831B8E1A8E8BE89FEF9E8365
:100D80008D839BEF9E0D9F87AA85A1119DC18B81AD
:100D90008E3108F057C0E114F10409F453C0073054
:100DA00009F450C0863068F08A8D982F9954963097
:100DB00050F09650963048F08555863040F024E04B
:100DC00007C020E005C021E003C022E001C023E00D
:100DD00030E089819A8165E070E0EAD8820D931D48
:100DE000FC01E20FF31F44814F3F61F1C9016AEF3B
:100DF0007FEFDED84530B1F42B813C81280F391FBD
:100E0000F101808190E066E070E0D2D8820F931FFC
:100E1000FC01EE5BFF4F1491F901E45CFF4FE4919C
:100E20001E2B11C0EB81FC81E80FF91F842F90E08D
:100E300066E070E0BDD88E0F9F1FFC01E25EFF4FA1
:100E4000149101C010E0A889B989BC91BF830B1728
:100E500008F475C0CB2ED12CF6013196FC87EB87B8
:100E6000EE15FF050CF46BC020E030E040E85FE3D6
:100E7000D10192966D917D918D919C91959775D6AA
:100E80004B015C0148D7CA8CDB8CC61AD108D7FC51
:100E900056C0EA8DFB8DBF01FF0F880B990B69D7F8
:100EA0002B013C01A5019401C5D687FD48C020E077
:100EB00030E040E050E4C501B40158D69B01AC01DC
:100EC000C301B20106D818160CF439C0A88DB98D2B
:100ED000EC91E11108C0BF810B1332C0F601E65A54
:100EE000FF4FE4912DC020E030E040E85FE3F101E6
:100EF00062A573A584A595A538D60DD76770FF8127
:100F00000F1309C0F601E65AFF4FE49101C0EE0F3E
:100F10006A95EAF715C02B853C85E216F30679F44D
:100F2000F601E65AFF4FE491F0E088E090E0861B7E
:100F3000910902C0F595E7958A95E2F701C0E0E0D6
:100F40001E2BBA8D8B2F8350843008F06BC0EC8938
:100F5000FD898081482F50E0BA016E5F7F4F6E158A
:100F60007F050CF45FC0081708F45CC0EE89FF89A8
:100F70009081911113C0E616F70609F454C0F701E9
:100F8000E41BF50BEE0FFF1FEE0FFF1F2A8D3B8DAD
:100F9000E20FF31FE65AFF4F949145C008130AC0B1
:100FA000EA8DFB8DE65AFF4FE49101C0EE0F9A9552
:100FB000EAF736C04F5F5F4F2A8D3B8D2F5F3F4F63
:100FC000E416F506E1F4EA8DFB8DE65AFF4F6491D5
:100FD000492F50E0F901E35AFF4FE49101C0EE0FB1
:100FE0009A95EAF770E088E090E0841B950B02C0C8
:100FF000759567958A95E2F79E2F962B14C0E61695
:10100000F70681F4F901E35AFF4FE491F0E028E09C
:1010100030E0291B310902C0F595E7952A95E2F7E2
:101020009E2F01C090E0192B3981363028F48A8D2B
:101030009B8D8A36910550F0E885F9852A8D3B8D88
:10104000E20FF31FE255FF4F949101C090E0192B7E
:10105000E114F10479F0EA89FB898081801750F06E
:10106000A9E8AB0FA33030F4EA8DFB8DE251F040DC
:10107000E49101C0E0E01E2BFF85F23010F52D81D8
:101080002730F8F4AD85BE85053029F48C916AE0EF
:10109000A0D790E00AC02C91822F6AE09AD790E006
:1010A00066EF7FEF85D7820F911D67E070E080D7F4
:1010B000ED81FE818E0F9F1FFC01E859FF4F849147
:1010C00001C080E0812B22C0FA85F13049F4E88527
:1010D000F9852A8D3B8DE20FF31FE255FB4F13C0BC
:1010E0003A853230A1F48981863028F4AA8DBB8DEF
:1010F000AA36B10550F0E885F9852A8D3B8DE20FBF
:10110000F31FE255FF4F849101C080E085DC8A8D9A
:101110009B8D01969B8F8A8FAD81BE811196BE8378
:10112000AD83EB81FC813196FC83EB8380389105A4
:1011300009F02ACE6CDCFFEFEF1AFF0A29813A8111
:101140002F5F3F4F3A83298338E0E316F10409F01B
:10115000F9CD6B960FB6F894DEBF0FBECDBFDF9111
:10116000CF911F910F91FF90EF90DF90CF90BF90A4
:10117000AF909F908F907F906F905F904F903F9037
:101180002F9008950F931F93CF93DF93811108C081
:1011900070E080E090E0DF91CF911F910F9136CD0C
:1011A000C62FD0E00FEF10E0081B1109DC17F1F09B
:1011B00081E07BDC80E0282F30E02017310734F419
:1011C00095E09A95F1F700008F5FF5CF80E06DDC38
:1011D00080E0282F30E02017310734F495E09A950D
:1011E000F1F700008F5FF5CFDF5FE0CFDF91CF91A8
:1011F0001F910F9108951F920F920FB60F92112415
:101200002F933F938F939F93AF93BF9380916100F0
:1012100090916200A0916300B091640030916000F1
:1012200023E0230F2D3720F40196A11DB11D05C029
:1012300026E8230F0296A11DB11D20936000809324
:10124000610090936200A0936300B093640080916A
:10125000650090916600A0916700B09168000196CA
:10126000A11DB11D8093650090936600A093670057
:10127000B0936800BF91AF919F918F913F912F9153
:101280000F900FBE0F901F901895CF93DF93CDB79F
:10129000DEB7C455D1090FB6F894DEBF0FBECDBF7F
:1012A00078948AB582608ABD8AB581608ABD83B729
:1012B000826083BF83B7816083BF89B7826089BF43
:1012C00080B7826080BF80B7816080BF329A319AD8
:1012D000309A379A8CB580648CBDB89ABA9A0AE471
:1012E00019E0FCE1FF2EF00EF8018491B3DB0F5FF3
:1012F0001F4FF012F9CF60E081E026DC61E084E06E
:1013000023DC60E086E020DC60E089E01DDC8E010B
:101310000F5F1F4FB80181E0D9DCF3DB892BE9F7C0
:1013200080E162968FAF629781E061968FAF61979F
:1013300083E063968FAF63971982B80180E09EDCEB
:10134000B80182E0C3DCE6E6EE2EE9E0FE2EF7010E
:1013500031966491F7018491645614DFF2E0EF0E48
:10136000F11C22ECE21629E0F20689F761968FADB6
:101370006197B801815082DC198282E02F968FAF8D
:101380002F9784E060968FAF609780E090E0A0E0B8
:10139000B1E48BA39CA3ADA3BEA38FA398A7A9A7D9
:1013A000BAA780E090E0A0E0B2E48BA79CA7ADA72D
:1013B000BEA78FA798ABA9ABBAAB80E090E0A0E83E
:1013C000BFE38BAB9CABADABBEAB8FAB98AFA9AF64
:1013D000BAAF80E090E0A0E0BFE38BAF9CAFADAFD1
:1013E000BEAF23968CAF9DAFAEAFBFAF23971A822F
:1013F00064968FAD6497877009F065C036DB8E3ECA
:101400009240DCF032DB82359340BCF460962FAD25
:101410006097273008F05DC22F968FAD2F9790E030
:1014200073E0880F991F7A95E1F7820F911D8C97D1
:1014300024F42F5F60962FAF609717DB853F9140B4
:10144000DCF013DB8E3E9240BCF460962FAD6097CB
:10145000222309F449C22F968FAD2F9790E063E0C5
:10146000880F991F6A95E1F7820F911D059724F067
:10147000215060962FAF60978A81811104C041DBB3
:10148000892B09F43DC28A8181111DC02F966FAD51
:101490002F9770E053E0660F771F5A95E1F760963B
:1014A0008FAD6097680F711D665F7F4F072E000C30
:1014B000880B990B5ED46BA77CA78DA79EA76FA7FF
:1014C00078AB89AB9AAB64968FAD649762966FAD3B
:1014D00062977FD591118AC124961FAE2497659695
:1014E0001FAE65976BA17CA18DA19EA16FA378A76C
:1014F00089A79AA7CBA4DCA4EDA4FEA4CFA6D8AA62
:10150000E9AAFAAA8BA89CA8ADA8BEA88FAA98AEF3
:10151000A9AEBAAE4BAC5CAC6DAC7EAC23964CAE17
:101520005DAE6EAE7FAE23972A8121111FC0249637
:101530006FAD2497062E000C770B880B990B19D4EE
:1015400020E030E048EC52E479D323962CAD3DAD59
:101550004EAD5FAD23970AD36B017C0120E030E0F4
:1015600040E85FEB67D387FFF7C006C165962FADF4
:101570006597233049F128F42130F1F0223059F1F8
:101580005AC06596AFAD6597A530D1F170F1A63020
:1015900009F051C020E030E040E85FE3E7D26FA3FC
:1015A00078A789A79AA780E090E0A0E8BFEB8FAB6F
:1015B00098AFA9AFBAAF39C0D501C401B0588FAB4D
:1015C00098AFA9AFBAAF37C0D501C401B0588FAB3F
:1015D00098AFA9AFBAAFB301A201705823964CAF30
:1015E0005DAF6EAF7FAF239726C0B301A2017058E5
:1015F0004FAB58AF69AF7AAFD501C401B05815C031
:1016000020E030E040E85FE3B1D26FA378A789A77C
:101610009AA780E090E0A0E8BFEB8FAB98AFA9AFAE
:10162000BAAF80E090E0A0E8BFE323968CAF9DAF17
:10163000AEAFBFAF23972FA938AD49AD5AAD6FA15B
:1016400078A589A59AA592D24B015C016FA378A7D2
:1016500089A79AA723962CAD3DAD4EAD5FAD2397DC
:10166000C701B60183D26B017C016FA778AB89AB50
:101670009AAB20E030E044ED52E4C501B40129D436
:1016800018160CF450C220E030E04CE652E4C701DA
:10169000B6011FD418160CF446C220E030E040E832
:1016A00050E4C701B601C6D287FD3DC22F964FACAC
:1016B0002F9760965FAC609720E030E040EC50E4FC
:1016C000C501B40106D418160CF41DC120E030E0A9
:1016D00040EA50E4C501B401ADD287FD14C1440C09
:1016E000440C440C540C652C712CB301072C000CD9
:1016F000880B990B3ED31B012C01A7019601E9D35E
:1017000018160CF400C1B301605F7F4F072E000C68
:10171000880B990B2ED3A70196018CD287FDF3C0BD
:10172000A2019101C701B60120D220E030E048E4D7
:1017300053E4D3D320E030E040E85DE3CED320E0B3
:1017400030E048EC52E411D2E1D224966FAF2497F6
:101750006AE08CE317DDE7C120E030E040E85FE3BA
:10176000C701B601B6D318166CF4C12CD12C90E881
:10177000E92E9FE3F92E06C0C12CD12C80E8E82E7B
:101780008FEBF82E8FA198A5A9A5BAA58BA39CA332
:10179000ADA3BEA36FA578A989A99AA96BA77CA7B9
:1017A0008DA79EA78FA898ACA9ACBAAC8BAA9CAA0F
:1017B000ADAABEAACBAEDCAEEDAEFEAE20E030E010
:1017C00040E85FE3D2D16B017C01A5D2862F877000
:1017D0002D968FAF2D9720E030E040E05EE3C7010B
:1017E000B6017BD398D22E966FAF2E9764968FADAD
:1017F00064978F7111F4B80169DA6496FFAC64974D
:10180000B0E3FB125EC08981833010F48F5F89835F
:1018100020E030E0A9016BA17CA18DA19EA10AD29C
:1018200087FD8CC1980141E065E0600F80E090E0A9
:10183000F901E80FF91F54815F3F19F0553009F0A5
:1018400040E005968E31910599F72F5F3F4F621367
:10185000EDCF442389F164E68CE394DC64E680E513
:1018600091DC64E684E68EDC64E688E78BDC64E683
:101870008CE888DC62968FAD6297893020F08250C8
:1018800062968FAF6297B80182E020DA60E971E07A
:1018900080E090E0BBD961968FAD6197853010F004
:1018A0008550FCCFB801EAD961968FAD61978F5F03
:1018B00061968FAF619760CDF3946496FFAE6497A5
:1018C00097CDEFE3EF15C0F781E064968FAF649793
:1018D0008FCD60961FAE60972F968FAD2F978F5F3D
:1018E0002F968FAF2F97A9CD87E060968FAF609727
:1018F0002F968FAD2F9781502F968FAF2F97BCCDFE
:1019000081E08A83C0CD20E030E044E852E4C501A4
:10191000B401DFD287FD09C020E030E040E952E4A5
:10192000C501B40187D187FD4BC020E030E040E91C
:1019300052E4C501B401CDD287FD09C020E030E0FA
:101940004CE952E4C501B40175D187FD3BC020E0EC
:1019500030E04CE952E4C501B401BBD287FD09C0B7
:1019600020E030E048EA52E4C501B40163D187FDCC
:101970002CC020E030E048EA52E4C501B401A9D20D
:1019800087FD09C020E030E044EB52E4C501B4011A
:1019900051D187FD1DC020E030E044EB52E4C50189
:1019A000B40197D287FD17C020E030E040EC52E44C
:1019B000C501B4013FD187FF0EC044E0B42E0DC075
:1019C000B12C0BC0BB24B39408C032E0B32E05C0C9
:1019D00023E0B22E02C0BB24BA94BB8220E030E0E8
:1019E00040E051E4C701B60174D287FD09C020E090
:1019F00030E040E851E4C701B6011CD187FD5CC06E
:101A000020E030E040E851E4C701B60162D287FD32
:101A100009C020E030E048EB51E4C701B6010AD12B
:101A200087FD4CC020E030E048EB51E4C701B6012F
:101A300050D287FD09C020E030E048EF51E4C701F3
:101A4000B601F8D087FD3CC020E030E048EF51E41B
:101A5000C701B6013ED287FD09C020E030E040E278
:101A600052E4C701B601E6D087FD2CC020E030E08B
:101A700040E252E4C701B6012CD287FD09C020E044
:101A800030E040E452E4C701B601D4D087FD1CC069
:101A900020E030E040E452E4C701B6011AD287FDED
:101AA00015C020E030E04CE552E4C701B601C2D0D9
:101AB00087FF0CC085E00BC080E009C081E007C053
:101AC00082E005C083E003C084E001C08FEF8C8317
:101AD0009FEFB91609F42BCD8F3F09F428CD90E084
:101AE00065E070E065D2800F911FFC01EB0DF11DE8
:101AF0008481853029F462E382ED44DB198213C0CE
:101B00008F3F09F414CD6AE086E93CDB2B818C81A0
:101B100090E065E070E04CD2800F911FFC01E20F75
:101B2000F11DAFEFA4836596FFAD6597FF5F6596E6
:101B3000FFAF6597F73009F0D5CCF9CC64E688ECB7
:101B400021DB64E686E91EDB64E684E61BDB64E6F3
:101B500082E318DB63968FAD6397882309F4D7CBB4
:101B6000815063968FAF639707CC5058BB27AA2745
:101B70000ED075C166D130F06BD120F031F49F3FAB
:101B800011F41EF45BC10EF4E095E7FB51C1E92F9F
:101B900077D180F3BA17620773078407950718F0A7
:101BA00071F49EF58FC10EF4E0950B2EBA2FA02D87
:101BB0000B01B90190010C01CA01A0011124FF27FA
:101BC000591B99F0593F50F4503E68F11A16F040F5
:101BD000A22F232F342F4427585FF3CF46953795F4
:101BE0002795A795F0405395C9F77EF41F16BA0BB9
:101BF000620B730B840BBAF09150A1F0FF0FBB1F67
:101C0000661F771F881FC2F70EC0BA0F621F731FAF
:101C1000841F48F4879577956795B795F7959E3F0C
:101C200008F0B3CF9395880F08F09927EE0F97959A
:101C300087950895D9D008F481E008950CD00FC19C
:101C400007D140F0FED030F021F45F3F19F0F0C032
:101C5000511139C1F3C014D198F39923C9F3552315
:101C6000B1F3951B550BBB27AA276217730784078F
:101C700038F09F5F5F4F220F331F441FAA1FA9F345
:101C800033D00E2E3AF0E0E830D091505040E69537
:101C9000001CCAF729D0FE2F27D0660F771F881F98
:101CA000BB1F261737074807AB07B0E809F0BB0B87
:101CB000802DBF01FF2793585F4F2AF09E3F5105AB
:101CC00068F0B6C000C15F3FECF3983EDCF3869548
:101CD00077956795B795F7959F5FC9F7880F911D21
:101CE0009695879597F90895E1E0660F771F881F0D
:101CF000BB1F621773078407BA0720F0621B730BC0
:101D0000840BBA0BEE1F88F7E095089504D0689411
:101D1000B111D9C00895BCD088F09F5790F0B92F69
:101D20009927B751A0F0D1F0660F771F881F991F30
:101D30001AF0BA95C9F712C0B13081F0C3D0B1E042
:101D40000895C0C0672F782F8827B85F39F0B93F52
:101D5000CCF3869577956795B395D9F73EF4909532
:101D60008095709561957F4F8F4F9F4F0895E894B0
:101D700009C097FB3EF490958095709561957F4FD3
:101D80008F4F9F4F9923A9F0F92F96E9BB27939581
:101D9000F695879577956795B795F111F8CFFAF491
:101DA000BB0F11F460FF1BC06F5F7F4F8F4F9F4FC2
:101DB00016C0882311F096E911C0772321F09EE820
:101DC000872F762F05C0662371F096E8862F70E086
:101DD00060E02AF09A95660F771F881FDAF7880F60
:101DE0009695879597F90895990F0008550FAA0BB6
:101DF000E0E8FEEF16161706E807F907C0F012161E
:101E00001306E407F50798F0621B730B840B950B20
:101E100039F40A2661F0232B242B252B21F4089575
:101E20000A2609F4A140A6958FEF811D811D089512
:101E300097F99F6780E870E060E008959FEF80EC7D
:101E4000089500240A941616170618060906089520
:101E500000240A9412161306140605060895092E86
:101E60000394000C11F4882352F0BB0F40F4BF2BF5
:101E700011F460FF04C06F5F7F4F8F4F9F4F089535
:101E800057FD9058440F551F59F05F3F71F047952B
:101E9000880F97FB991F61F09F3F79F08795089510
:101EA000121613061406551FF2CF4695F1DF08C02F
:101EB000161617061806991FF1CF8695710561054C
:101EC00008940895E894BB2766277727CB0197F9F4
:101ED00008958ADF08F48FEF08950AD0C0CFB1DFEC
:101EE00028F0B6DF18F0952309F0A2CFA7CFEBCFEB
:101EF000C7DFA8F39923D9F35523C9F3950F50E011
:101F0000551FAA27EE27FF27BB27002408946795B3
:101F100020F4E20FF31FB41F0A1E220F331F441FC9
:101F2000AA1F6695A9F7779530F4F30FB41F0A1E20
:101F3000121E08F46395330F441FAA1F221F7695C3
:101F400099F7879520F4B40F0A1E121E631F440FE1
:101F5000AA1F221F331F8695A9F7862F712D602D8A
:101F600011249F5750408AF0E1F088234AF0EE0F89
:101F7000FF1FBB1F661F771F881F91505040A9F796
:101F80009E3F510570F054CF9ECF5F3FECF3983EDB
:101F9000DCF3869577956795B795F795E7959F5FFD
:101FA000C1F7FE2B880F911D9695879597F9089597
:101FB0000024552704C0080E591F880F991F009749
:101FC00029F076956795B8F37105B9F7802D952FAF
:101FD0000895991B79E004C0991F961708F0961B85
:0E1FE000881F7A95C9F780950895F894FFCF71
:00000001FF
