:1000000053C26DC26CC26BC26AC2F7C568C267C216
:1000100066C265C264C263C262C261C260C23CC8D9
:1000200040C84DC851C85EC870C885C80C1C3EFE8B
:10003000CE0630387C7F7360000000003700AE20B1
:1000400000B0C8001040813FA1A6A83FA4D300D5AE
:10005000F0D922DA12DB208D14AF0C1830E0C0008A
:1000600000001EF0C000000010F8CC0630180C078D
:1000700003000000780F03000000081F3360ABABE3
:100080002B2B0B0B030383C3E373333B3B3B3B1330
:100090000303070F1F3F3F3F1F1F0F0F0F070707E8
:1000A00007070707070707070707070707070707E0
:1000B000070F0F0F1F3FFFFFFF03D9D903FF0200F8
:1000C000000000000607030100000004060303010E
:1000D000010000000000000000000000000000809F
:1000E000C0C0800000000000000C1E1E0C000000BC
:1000F00000000000000000FFFF80B6B680FF400057
:100100000000000060E0C0800000002060C0C080EF
:10011000800000000000000000000000000000015E
:100120000303010000000000003078783000000078
:1001300000000000000000FFFF01ABAB01FFD5D5C0
:10014000D4D4D0D0C0C0C1C3C7CECCDCDCDCDCC8CA
:10015000C0C0E0F0B8BCBCBCB8B8B0B0B0B0B0B0D3
:10016000B0B0B0B0B0B0B0B0B0B0B0B0B0B08080EF
:10017000C0C0E0E0F0FCFFFFFFC0AAAAC0FFABAB2D
:100180002B2B0B0B030383C3E373333B3B3B3B132F
:100190000303070F1F3F3F3F1F1F0F0F0F070707E7
:1001A00007070707070707070707070707070707DF
:1001B000070F0F0F1F3FFFFFFF03D9D903FF0200F7
:1001C000000000000607030100000004060303010D
:1001D0000100000000000000000000000000C060FE
:1001E000A0A060C0000000001E332D2D331E0000B3
:1001F00000000000000000FFFF80B6B680FF400056
:100200000000000060E0C0800000002060C0C080EE
:100210008000000000000000000000000000030655
:10022000050506030000000078CCB4B4CC780000CB
:1002300000000000000000FFFF01ABAB01FFD5D5BF
:10024000D4D4D0D0C0C0C1C3C7CECCDCDCDCDCC8C9
:10025000C0C0E0F0B8BCBCBCB8B8B0B0B0B0B0B0D2
:10026000B0B0B0B0B0B0B0B0B0B0B0B0B0B08080EE
:10027000C0C0E0E0F0FCFFFFFFC0AAAAC0FFFFC0C3
:100280008080C0FFFFC08080C0FFFFC08080C0FFB3
:10029000FFC08080C0FFFFC18081C0FFFFC5828595
:1002A000C2FFFFD58A95CAFFFFD5AAD5EAFFFF0195
:1002B000010101FFFF05030503FFFF150B150BFFF0
:1002C000FF552B552BFFFF55AB55ABFFFF55AB55DE
:1002D000ABFFFF55AB55ABFFFF55AB55ABFFFF80F9
:1002E000808080FFFF80808080FFFF80808080FF93
:1002F000FF80868680FFFF80B6B680FFFF03010186
:1003000003FFFF03191903FFFF03D9D903FFFF03FD
:10031000D9D903FFFF03D9D903FFFF01010101016F
:1003200001010101017D457505457D01FFFF0000CB
:10033000609090909060000029292FA9A94600FFA5
:10034000FF0000E42A2A6A2AEA00003A0A0A1A0A86
:100350003900FFFF8080928A868E928E8080808016
:100360008080808080FFFF017D457505457D01FF10
:10037000FF80AF89A9A9A9AF80FF00FCFE1E0EEE89
:100380002EEE6EAE6EEEEEEE0EFEFEFE06FA9C0C4D
:100390000C0898F20206FEFEFEFEFEFEFEFEFE0EBB
:1003A000FE3EFEFEFEFEFEDEDE1EDEDEDE1EFEFE8D
:1003B000FEFEFEFEFEFEFE7EFEFC0000FFFF0000D5
:1003C000FF4E6D6EEF44EFEFFF00FFFFFFFEF8C73B
:1003D0003FFFFFFFFF80003FFFFF7F3F1F1F0F0F0B
:1003E000080F101F207F83FFFFFFABAAAAAACBFF35
:1003F000FFFF8DDDDDDDCDFDD0FFFF0000FFFF0045
:1004000000FFE8EDECED4CFFFFFF00FFFFFFFFFFFB
:10041000FFFEE11FFFFFFFC0003FC1000000000022
:1004200000000080C03000C1FFFFFF8CAA88BACC5A
:10043000FFFF9FB6B6365658EFFFFFFF00003F7F25
:100440006060676466666664666667707F7F7F7FEC
:100450007F7F7F7F7F78776F6760707F7F7E7C7C18
:10046000787878797C7C7E7F7F7F7F7F7A7A7A7AD2
:100470007A7F7F7F7F7F7F7F7E7E7F7F3F00000050
:1004800000003600000000003800020202020202F2
:1004900002020202010204081020200410080102D6
:1004A000000004000000000011241FBECFE5D2E0D0
:1004B000DEBFCDBF10E0A0E6B0E0EEEBFFE102C092
:1004C00005900D92AE36B107D9F720E0AEE6B0E068
:1004D00001C01D92AF37B207E1F7D9D36ECD90CDF1
:1004E000C298C098C29AC09A089520E030E090E087
:1004F000AC01022E01C0440F0A94EAF747FF02C084
:10050000C09A01C0C098C29AC2982F5F3F4F28304E
:10051000310571F7C09AC29AC2980895C29AC09ADA
:10052000C098C2980895FADF88E7DFDF80E4DDCF66
:10053000F5DF88E7DADF80E0D8CFCF93DF931F9233
:10054000CDB7DEB78983F4DF8981CFDF0F90DF91EC
:10055000CF91C6CF1F93CF93DF93182FC0EB8C2F73
:10056000ECDF80E0EADF80E1E8DFDDDFD0E0812F53
:10057000BCDFDF5FD038D9F7B3DFCF5FC83B79F797
:10058000DF91CF911F91089583E087B9369A36990C
:10059000FECF84B125B190E0922B08958F929F9267
:1005A000AF92BF92CF92DF92EF92FF920F931F9381
:1005B000CF93DF93E82EF62E842E922E5801182F1B
:1005C00012951F701061D12C00E08E708160C82ED2
:1005D000F914F0F4ADDF80EB8F0D87DF812F85DF1D
:1005E0008C2D83DF7DDF9FDFCD2DD02F0E2D0D19BC
:1005F0008C2F800F881538F4F501EC0FFD1F8491C6
:1006000074DF2196F5CF6CDFF394DC2E0D2FE0CF55
:10061000DF91CF911F910F91FF90EF90DF90CF90DE
:10062000BF90AF909F908F900895823081F018F422
:10063000813051F00895833019F0843009F0089525
:100640008CB58F7D8CBD08958AB58F7702C08AB531
:100650008F7D8ABD08951F93CF93DF93E2EAF4E084
:100660009491E8E9F4E0D491EEE8F4E0C491CC236D
:10067000D1F0182F992311F0892FD7DFEC2FF0E05C
:10068000EE0FFF1FEC57FB4FA591B4918FB7F89475
:10069000111105C09C91ED2FE095E92302C0EC916A
:1006A000ED2BEC938FBFDF91CF911F910895CF93E6
:1006B000DF93EFE9F4E08491E5E9F4E0D491EBE82D
:1006C000F4E0C491CC2389F08111AFDFEC2FF0E08E
:1006D000EE0FFF1FE258FB4FA591B491EC91ED2373
:1006E00081E090E021F480E002C080E090E0DF91C2
:1006F000CF910895CF93DF9390E0FC01EC56FB4F30
:100700002491FC01E657FB4F8491882361F190E02E
:10071000880F991FFC01E85CFF4FC591D491FC0143
:10072000EC57FB4FA591B491611109C09FB7F894A4
:100730008881209582238883EC912E230BC0623020
:1007400061F49FB7F8943881822F80958323888342
:10075000EC912E2B2C939FBF06C08FB7F894E881A5
:100760002E2B28838FBFDF91CF9108953FB7F89448
:100770008091730090917400A0917500B091760003
:1007800022B708B601FE05C02F3F19F00196A11D42
:10079000B11D3FBFBA2FA92F982F8827820F911D17
:1007A000A11DB11DBC01CD0142E0660F771F881F5E
:1007B000991F4A95D1F708958F929F92AF92BF9259
:1007C000CF92DF92EF92FF926B017C01CFDF4B0162
:1007D0005C01C114D104E104F104E9F0C7DFDC01DC
:1007E000CB0188199909AA09BB09883E9340A10544
:1007F000B10578F321E0C21AD108E108F10888EECA
:10080000880E83E0981EA11CB11CC114D104E10420
:10081000F10421F7DECFFF90EF90DF90CF90BF90F3
:10082000AF909F908F90089580FF0CC067FF02C02B
:1008300080EC01C080E066FD806365FD8C6064FF34
:100840000CC00AC063FF02C080EC01C080E062FD02
:10085000806361FD8C6060FD836008958770E82F80
:10086000F0E0EA59FF4F80810895CF93DF93EC01C8
:1008700020E030E040E85FE3688579858A859B85E4
:10088000D5DA181644F480E090E0A0E8BFE388874A
:100890009987AA87BB8720E030E040E85FEB688556
:1008A00079858A859B8573D987FF08C080E090E0B1
:1008B000A0E8BFEB88879987AA87BB8720E030E054
:1008C00040E85FE36C857D858E859F85AFDA1816DD
:1008D00044F480E090E0A0E8BFE38C879D87AE877A
:1008E000BF8720E030E040E85FEB6C857D858E853A
:1008F0009F854DD987FF08C080E090E0A0E8BFEB5E
:100900008C879D87AE87BF87DF91CF9108958F92A7
:100910009F92AF92BF92CF92DF92EF92FF92CF93CE
:10092000DF93EC01A2DFC888D988EA88FB8820E041
:1009300030E0A901C701B60179DA87FD2DC0888CA6
:10094000998CAA8CBB8C20E030E040E85FEBC501BD
:10095000B4016CDA1816A4F42DEC3CEC4CE45DE325
:10096000C501B401AFD84B015C0120E030E040E8A4
:100970005FEB5CDA181624F4888E998EAA8EBB8EF3
:10098000288D398D4A8D5B8DC701B6019CD8688B47
:10099000798B8A8B9B8B02C081E088A72C8D3D8D43
:1009A0004E8D5F8D6C897D898E899F898CD86C8BEB
:1009B0007D8B8E8B9F8BDF91CF91FF90EF90DF909F
:1009C000CF90BF90AF909F908F9008950F931F93FB
:1009D000CF93DF93062F10E0CFEFD0E0C81BD109F3
:1009E0001017F1F081E037DE80E0282F30E02C177F
:1009F0003D0734F495E09A95F1F700008F5FF5CF4D
:100A000080E029DE80E0282F30E02C173D0734F409
:100A100095E09A95F1F700008F5FF5CF1F5FE0CF6B
:100A2000DF91CF911F910F9108958F929F92AF9276
:100A3000BF92CF92DF92EF92FF920F931F93CF93CB
:100A4000DF936B017C0149015A01C8010EDF20E0F0
:100A500030E0A901C701B601E9D920E030E040E06B
:100A60005FE387FD04C0C701B6012DD803C0C701ED
:100A7000B60128D8F8D8E62E20E030E0A901C5015B
:100A8000B401D4D920E030E040E05FE387FD04C04A
:100A9000C501B40118D803C0C501B40113D8E3D807
:100AA000F62E2E2D30E0E62FE695E695E695F0E061
:100AB00086E0EE0FFF1F8A95E1F7EF01C20FD31F0B
:100AC0008CEF8E0D863008F049C085EF8F0D843095
:100AD000D8F4D0907B0024503109F901D11003C023
:100AE000E459FF4F1EC0EE5CFF4FE4908F2DB6DE41
:100AF000282F2E2109F055C0FE01E258FF4FE49146
:100B00008E2309F04EC06CC08FEE8F0D843030F50F
:100B1000D0907A0024503109F901D1100FC0E65A63
:100B2000FF4F14918F2D9ADE282F212309F037C013
:100B3000FE01E258FF4FE491E8232CC0E45DFF4F33
:100B4000E4908F2D8BDE282F2E2109F039C0FE0175
:100B5000E258FF4FE4918E2399F542C0205E3F4F4B
:100B60008091600090E02817390764F420E030E0BD
:100B700040EF51E4F801648175818681978107D83F
:100B8000882369F0FE01E258FF4FC4918F2D66DE85
:100B9000E82FEC2381E0E11123C080E021C081E057
:100BA0001FC0F3E0DF1679F080E090E0A0E0B0E451
:100BB000F801808F918FA28FB38F6CE084E10EC01B
:100BC00083E0D812F1CF80E090E0A0E8BFE3F80125
:100BD000808F918FA28FB38F66E081E0F7DEDDCF4B
:100BE000DF91CF911F910F91FF90EF90DF90CF9009
:100BF000BF90AF909F908F9008951F920F920FB665
:100C00000F9211242F933F938F939F93AF93BF9392
:100C100080916F0090917000A0917100B09172006E
:100C200030916E0023E0230F2D3720F40196A11D93
:100C3000B11D05C026E8230F0296A11DB11D20930A
:100C40006E0080936F0090937000A0937100B0933A
:100C500072008091730090917400A0917500B09122
:100C600076000196A11DB11D8093730090937400CE
:100C7000A0937500B0937600BF91AF919F918F9133
:100C80003F912F910F900FBE0F901F901895CF930B
:100C9000DF93CDB7DEB7E7970FB6F894DEBF0FBE90
:100CA000CDBF78948AB582608ABD8AB581608ABDDD
:100CB00083B7826083BF83B7816083BF89B7826057
:100CC00089BF80B7826080BF80B7816080BF329A61
:100CD000319A309A379A8CB580648CBD2FEF33EF00
:100CE00041E0215030404040E1F700C00000B89A98
:100CF000BA9A0EE310E06CE1F62EF00EF801849142
:100D00001CDC0F5F1F4FF012F9CFFFEF23EF31E034
:100D1000F15020403040E1F700C0000060E089E081
:100D2000E9DC60E081E0E6DC61E084E0E3DC80E0D7
:100D300011DC80E090DC10927E0085E08093610001
:100D40008FEF08DC64EF71E080E090E035DD0AE7CA
:100D500013E026E040E662E08FE120DC1FEF62E076
:100D6000812F34DE1150D9F762E0812F2FDE1F5F13
:100D70001F3FD1F768EE73E080E090E01DDDD5D530
:100D800003DC8E3E924024F492DC892B31F40DC0BA
:100D9000FBDB82359340C4F708C0F6DB853F91400A
:100DA00074F3F2DB8E3E924054F780E0D3DB06E62C
:100DB00013E025E045E463E08BE3F0DB81E0809322
:100DC0007D0068EE73E080E090E0F6DC80916100E9
:100DD000882321F1815080936100FE013196F9ABA7
:100DE000E8AB8FE211928A95E9F720E030E048E322
:100DF00052E429833A834B835C8380E090E0A0EF48
:100E0000B1E48D839E83AF83B887298B3A8B4B8B5C
:100E10005C8B8D8B9E8BAF8BB88F60C06CE271E06A
:100E200080E090E0C9DC0AE113E026E049E462E0FA
:100E300086E3B4DB15E064E684E6C8DD64E681E0C1
:100E4000C5DD1150C1F768EE73E080E090E0B4DCDE
:100E500072CF20E030E048EE51E46D817E818F81D9
:100E60009885E4D787FDF9C420E030E040E951E4FB
:100E7000C701B601DBD787FDF0C486DB8E3E92400A
:100E80000CF0E5C414DC892B09F0E9C48091600002
:100E9000873318F082508093600076DB853F914065
:100EA0000CF4F2C471DB8E3E92400CF0EDC48091E4
:100EB0007B0083301CF48F5F80937B0065DB8E3E6C
:100EC00092400CF0DBC4F3DB892B09F0E4C4809181
:100ED0007A0083301CF48F5F80937A00CE010196F4
:100EE00016DD2D893E894F89588D69897A898B89CC
:100EF0009C898E010F5F1F4F98DD882309F457C22C
:100F0000C801B3DCC980DA80EB80FC80C98ADA8A48
:100F1000EB8AFC8A6D817E818F8198856D8B7E8BBB
:100F20008F8B988F09851A852B853C85098F1A8FA1
:100F30002B8F3C8F0D851E852F8538890D8F1E8F39
:100F40002F8F38A320E030E040EF51E420D681110C
:100F50009DC020E030E04CE352E4C701B60117D653
:100F600018160CF493C08E010F5F1F4F20E030E085
:100F700040EF51E4C701B60158DD811104C0CE0134
:100F80000196C5DCEEC0C988DA88EB88FC886091E0
:100F9000600070E061507109072E000C880B990BFE
:100FA00095D64B015C0120E030E040E052E4C701FF
:100FB000B60189D5A5019401EAD587FF26C010E0C6
:100FC00020E030E040E052E4C701B6017CD5A50145
:100FD0009401DDD587FF0BC020E030E040E85FE3FF
:100FE000C701B60170D56B017C011F5FE9CFC98ACB
:100FF000DA8AEB8AFC8A153040F080E090E0A0E0CD
:10100000B0E4898F9A8FAB8FBC8FC98CDA8CEB8C54
:10101000FC8C20E030E0A901C701B601B8D5181654
:101020000CF4ADCFF7FAF094F7F8F094C98EDA8E9D
:10103000EB8EFC8EA4CF69817A818B819C81698B38
:101040007A8B8B8B9C8B0D811E812F8138850D8B2C
:101050001E8B2F8B388F0F2D10E007301105C0F03D
:10106000CE01019654DC2D893E894F89588D6989BE
:101070007A898B899C898E010F5F1F4FD6DC88236C
:1010800009F46FC0F39437E0F312D5CFF12CD3CF2E
:10109000F801E15FFF4F099489859A85AB85BC858E
:1010A00005C089859A85AB85BC85B058898F9A8F94
:1010B000AB8FBC8F8D859E85AF85B88921C0898512
:1010C0009A85AB85BC8505C089859A85AB85BC852D
:1010D000B058898F9A8FAB8FBC8F8D859E85AF85D9
:1010E000B8890DC08D859E85AF85B889B058898F28
:1010F0009A8FAB8FBC8F89859A85AB85BC85B0589C
:101100008D8F9E8FAF8FB8A3ABCF20E030E040E84B
:101110005FE3D9D4698B7A8B8B8B9C8B2DEC3CEC69
:101120004CE45EEB298F3A8F4B8F5C8F8DEC9CECFF
:10113000ACE4BEE3E5CF20E030E040E85FE3C3D4B9
:10114000698B7A8B8B8B9C8B2DEC3CEC4CE45EEBAF
:10115000298F3A8F4B8F5C8F2D8F3E8F4F8F58A3E7
:101160007FCF4D805E806F80788420E030E040EE5D
:1011700050E4C301B2010BD5CD88DE88EF88F88C2E
:1011800089889A88AB88BC8887FD1FC020E030E042
:1011900040EC51E4C301B20149D61816B4F04980BD
:1011A0005A806B807C8020E030E048EF51E4C3013E
:1011B000B201EDD487FD09C020E030E040E452E404
:1011C000C301B20133D618162CF589829A82AB82FC
:1011D000BC82CD82DE82EF82F886898D9A8DAB8DBE
:1011E000BC8D89879A87AB87BC878D8D9E8DAF8D8F
:1011F000B8A18D879E87AF87B88B20E030E048EE9E
:1012000051E4C701B601C3D487FFA0C066E081E006
:10121000DDDB9CC089829A82AB82BC82CD82DE8279
:10122000EF82F88620E030E040E051E4698D7A8D6D
:101230008B8D9C8DFFD54B015C01698F7A8F8B8FD5
:101240009C8F20E030E040E051E46D8D7E8D8F8DED
:1012500098A1F0D56B017C016D8F7E8F8F8F98A345
:1012600023E333E343EB5FE3C501B401DFD5181695
:1012700044F483E393E3A3EBBFE3898F9A8FAB8FAF
:10128000BC8F23E333E343EB5FEB698D7A8D8B8D6A
:101290009C8D7DD487FF08C083E393E3A3EBBFEB72
:1012A000898F9A8FAB8FBC8F23E333E343EB5FE3EC
:1012B000C701B601BBD5181644F483E393E3A3EB4F
:1012C000BFE38D8F9E8FAF8FB8A323E333E343EB50
:1012D0005FEB6D8D7E8D8F8D98A159D487FF08C0EF
:1012E00083E393E3A3EBBFEB8D8F9E8FAF8FB8A308
:1012F000898D9A8DAB8DBC8D89879A87AB87BC878A
:101300008D8D9E8DAF8DB8A18D879E87AF87B88B51
:1013100040E051E0509379004093780080917E0046
:10132000873020F48F5F80937E0010C08091610031
:10133000843018F48F5F8093610010927E001CE36C
:1013400066E0812F43DB1C5E103FD1F7CD8CDE8C35
:10135000EF8CF8A02AE939E949E15EE3C701B6015B
:1013600065D587FD0BC02DEC3CEC4CEC5DE3C70173
:10137000B601A8D36D8F7E8F8F8F98A3CD8CDE8C16
:10138000EF8CF8A02AE939E949E15EEBC701B60123
:10139000FED3181664F12DEC3CEC4CEC5DE3C70178
:1013A000B60191D36D8F7E8F8F8F98A320C08989CE
:1013B0009A89AB89BC8989839A83AB83BC838D89E5
:1013C0009E89AF89B88D8D839E83AF83B887898DC1
:1013D0009A8DAB8DBC8D89879A87AB87BC878D8DA5
:1013E0009E8DAF8DB8A18D879E87AF87B88B20E08B
:1013F00030E048EE51E46D817E818F81988516D56D
:1014000018169CF420E030E040EB51E469817A81C9
:101410008B819C810BD5181644F480E090E0A0EFFE
:10142000B1E48D839E83AF83B887C980DA80EB8077
:10143000FC8020E030E0A901C701B601F7D420E02C
:1014400030E040E05FE387FD04C0C701B6013BD355
:1014500003C0C701B60136D306D4613371058105D7
:1014600091050CF459C0CD80DE80EF80F88420E037
:1014700030E0A901C701B601D9D420E030E040E056
:101480005FE387FD04C0C701B6011DD303C0C701D8
:10149000B60118D3E8D36E31710581059105E1F5E8
:1014A00080E090E0A8E4B2E489839A83AB83BC83B4
:1014B00080E090E0A8EEB1E48D839E83AF83B8878F
:1014C00034D22AE030E040E050E03CD2FFD320E0CC
:1014D00030E048EC52E45FD39B01AC016DEC7CEC56
:1014E0008CE49FE3EFD269877A878B879C871DD234
:1014F0002EE130E040E050E025D2E8D320E030E0BB
:1015000048EC52E448D320E030E040E85FE3DAD230
:101510006D877E878F87988BCD80DE80EF80F88403
:101520002CE53FE84AE251E4C701B60130D387FD1C
:101530000EC02EEA37E44DEA51E4C701B60176D475
:1015400018164CF095E09BABA2E0AAAB08C0B3E044
:10155000BBAB1AAA04C0E7E0EBABF4E0FAAB8091B6
:101560007D00813019F427E02BAB1AAAF12C80EB17
:101570008F0DE3D780E0E1D780E1DFD7D4D76F2D9F
:10158000669570E080E090E0A1D3BFD420E030E029
:1015900040E850E498D26CD3062F862F90E09C014F
:1015A00024503109390136E0660C771C3A95E1F791
:1015B0004CEFC42EDD24DA9450E2B52E9C01990F35
:1015C000440B550B2CAB3DAB4EAB5FAB3AA9F316BE
:1015D00018F04BA94F1528F484E08C0D8C3008F0DE
:1015E000E2C059E55B1508F49BC0073051F485E370
:1015F0008B1538F480916000B81618F420E4922E10
:1016000001C0912C90917B0093300CF092E080917E
:101610007A0083300CF082E0053071F4A5E0AC155F
:10162000D8F0892F90E066E070E0B6D48C0D9D1D57
:10163000FC01E459FF4F0EC0063071F4B5E0BC1553
:1016400058F090E066E070E0A7D48C0D9D1DFC0181
:10165000E65AFF4F149101C010E0E0917800F0913C
:101660007900E60DF71DE258FF4FE49029803A809B
:101670004B805C8020E030E0A901C201B101D6D3EB
:1016800020E030E040E05FE387FD04C0C201B1012B
:101690001AD203C0C201B10115D2E5D290E2892E5F
:1016A000860E2D803E804F80588420E030E0A901D6
:1016B000C201B101BBD320E030E040E05FE387FD31
:1016C00004C0C201B101FFD103C0C201B101FAD10E
:1016D000CAD280E2A82EA60E0430E0F06A2D6695EC
:1016E0006695669570E080E090E0F0D20ED41B0124
:1016F0002C016CA97DA98EA99FA9E8D29B01AC0100
:10170000C201B10144D2811105C08B1003C08A2DE2
:10171000A5D801C080E0612F6E296929682B3DC0E2
:101720002AEC2C0D0530F9F070F40430A9F5809105
:10173000610090E066E070E02FD4820F911DFC0103
:10174000E450FD4F27C00630D1F0073029F58091D5
:101750007E0090E066E070E01FD4820F911DFC01D6
:10176000E258FD4F17C08091610090E066E070E0A4
:1017700013D4820F911DFC01E252FD4F0BC08091EA
:101780007E0090E066E070E007D4820F911DFC01BE
:10179000E255FD4F649101C060E08F2D45D8182FB0
:1017A000A4D6812FA2D6B394EFEF6E1A7E0AFFEF74
:1017B000CF1ADF0A20E6B21209CF92D6F39438E0AE
:1017C000F312D5CE809178009091790081159140E7
:1017D000B1F4809177008F5F80937700823078F04A
:1017E00064E181E0F3D864E184E1F0D864E181E070
:1017F000EDD8109279001092780010927700109234
:101800007D0063E070E080E090E0D6D780917C00BE
:10181000811104C081E080937C0002C010927C00A2
:10182000C980DA80EB80FC8020E030E040E05FE3BC
:10183000C701B601ACD187FF0CCB12E366E0812F64
:10184000C5D81150D9F781E080937D00BFCA9CD6DE
:10185000823593400CF41ACB15CB88E41CCB8091D5
:1018600060008F53893018F488E480936000809181
:101870006000883408F011CB885F0DCB85D68235A7
:1018800093400CF424CB1FCB80917B0018160CF0F6
:1018900015CB815011CB80917A0018160CF01ECB1D
:1018A00081501ACBA0E0B0E0E7E5FCE08AC0EC0193
:1018B000688179818A819B81611571058105910516
:1018C00021F464E279ED8BE597E02DE133EF41E01F
:1018D00050E038D049015A0127EA31E440E050E0B5
:1018E0004DD069017A01C501B4012CEE34EF4FEF00
:1018F0005FEF44D0022F132F9A01D701C601800F4A
:10190000911FA21FB31FB7FF03C00197A109B048E1
:1019100088839983AA83BB83BC01CD019F77CDB710
:10192000DEB7ECE06AC0BEDF089582E690E0BADF81
:1019300008956093620070936300809364009093B5
:1019400065000895052E97FB16F400940FD057FDFF
:1019500005D068D007FC02D046F408C050954095E9
:10196000309521953F4F4F4F5F4F0895909580954B
:10197000709561957F4F8F4F9F4F08956894001326
:10198000E894A0E0B0E0E6ECFCE01DC0EFEFE7F982
:1019900059016A015E23550FEE08FE2C87019B0159
:1019A000AC019E23990F660B762FCB015DD0CDB78E
:1019B000DEB7EAE024C02F923F924F925F926F927F
:1019C0007F928F929F92AF92BF92CF92DF92EF92CF
:1019D000FF920F931F93CF93DF93CDB7DEB7CA1B50
:1019E000DB0B0FB6F894DEBF0FBECDBF09942A887B
:1019F000398848885F846E847D848C849B84AA8423
:101A0000B984C884DF80EE80FD800C811B81AA81AF
:101A1000B981CE0FD11D0FB6F894DEBF0FBECDBF7A
:101A2000ED010895A1E21A2EAA1BBB1BFD010DC0FA
:101A3000AA1FBB1FEE1FFF1FA217B307E407F5077E
:101A400020F0A21BB30BE40BF50B661F771F881F5A
:101A5000991F1A9469F760957095809590959B01F0
:101A6000AC01BD01CF010895DF93CF939F92A0E415
:101A70009A2E0024D001E001F00116950795F79405
:101A8000E794D794C794B794A79448F41068A20F2A
:101A9000B31FC41FD51FE61FF71F081E191E220FF4
:101AA000331F441F551F661F771F881F991F9A9465
:101AB00021F79D01AE01BF01C00111249F90CF917C
:101AC000DF9108955058BB27AA270ED075C166D163
:101AD00030F06BD120F031F49F3F11F41EF45BC164
:101AE0000EF4E095E7FB51C1E92F77D180F3BA17E7
:101AF000620773078407950718F071F49EF58FC18C
:101B00000EF4E0950B2EBA2FA02D0B01B901900118
:101B10000C01CA01A0011124FF27591B99F0593F5C
:101B200050F4503E68F11A16F040A22F232F342FA4
:101B30004427585FF3CF469537952795A795F040F2
:101B40005395C9F77EF41F16BA0B620B730B840B07
:101B5000BAF09150A1F0FF0FBB1F661F771F881FBF
:101B6000C2F70EC0BA0F621F731F841F48F4879517
:101B700077956795B795F7959E3F08F0B3CF939506
:101B8000880F08F09927EE0F979587950895D9D07B
:101B900008F481E008950CD00FC107D140F0FED0C9
:101BA00030F021F45F3F19F0F0C0511139C1F3C09A
:101BB00014D198F39923C9F35523B1F3951B550B11
:101BC000BB27AA2762177307840738F09F5F5F4F10
:101BD000220F331F441FAA1FA9F333D00E2E3AF051
:101BE000E0E830D091505040E695001CCAF729D06B
:101BF000FE2F27D0660F771F881FBB1F26173707BA
:101C00004807AB07B0E809F0BB0B802DBF01FF27E9
:101C100093585F4F2AF09E3F510568F0B6C000C14F
:101C20005F3FECF3983EDCF3869577956795B79523
:101C3000F7959F5FC9F7880F911D9695879597F93E
:101C40000895E1E0660F771F881FBB1F62177307B7
:101C50008407BA0720F0621B730B840BBA0BEE1FCC
:101C600088F7E095089504D06894B111D9C008951B
:101C7000BCD088F09F5790F0B92F9927B751A0F0AA
:101C8000D1F0660F771F881F991F1AF0BA95C9F710
:101C900012C0B13081F0C3D0B1E00895C0C0672F49
:101CA000782F8827B85F39F0B93FCCF386957795C0
:101CB0006795B395D9F73EF49095809570956195A9
:101CC0007F4F8F4F9F4F0895E89409C097FB3EF4D4
:101CD00090958095709561957F4F8F4F9F4F992379
:101CE000A9F0F92F96E9BB279395F69587957795F7
:101CF0006795B795F111F8CFFAF4BB0F11F460FFB7
:101D00001BC06F5F7F4F8F4F9F4F16C0882311F00E
:101D100096E911C0772321F09EE8872F762F05C022
:101D2000662371F096E8862F70E060E02AF09A95BD
:101D3000660F771F881FDAF7880F9695879597F9B2
:101D40000895990F0008550FAA0BE0E8FEEF16164C
:101D50001706E807F907C0F012161306E407F5079F
:101D600098F0621B730B840B950B39F40A2661F013
:101D7000232B242B252B21F408950A2609F4A140B6
:101D8000A6958FEF811D811D089597F99F6780E8C3
:101D900070E060E008959FEF80EC089500240A94BD
:101DA0001616170618060906089500240A94121636
:101DB0001306140605060895092E0394000C11F469
:101DC000882352F0BB0F40F4BF2B11F460FF04C016
:101DD0006F5F7F4F8F4F9F4F089557FD9058440F6F
:101DE000551F59F05F3F71F04795880F97FB991F7A
:101DF00061F09F3F79F08795089512161306140637
:101E0000551FF2CF4695F1DF08C0161617061806C3
:101E1000991FF1CF86957105610508940895E8949E
:101E2000BB2766277727CB0197F908958ADF08F447
:101E30008FEF08950AD0C0CFB1DF28F0B6DF18F0D9
:101E4000952309F0A2CFA7CFEBCFC7DFA8F3992343
:101E5000D9F35523C9F3950F50E0551FAA27EE2754
:101E6000FF27BB2700240894679520F4E20FF31F97
:101E7000B41F0A1E220F331F441FAA1F6695A9F71D
:101E8000779530F4F30FB41F0A1E121E08F4639501
:101E9000330F441FAA1F221F769599F7879520F4C8
:101EA000B40F0A1E121E631F440FAA1F221F331FE6
:101EB0008695A9F7862F712D602D11249F575040CC
:101EC0008AF0E1F088234AF0EE0FFF1FBB1F661F68
:101ED000771F881F91505040A9F79E3F510570F021
:101EE00054CF9ECF5F3FECF3983EDCF38695779519
:101EF0006795B795F795E7959F5FC1F7FE2B880F1C
:101F0000911D9695879597F908952FD020F09F37CA
:101F100008F486CF01C01BC0882371F4772321F019
:101F20009850872B762F07C0662311F499270DC090
:101F30009051862B70E060E02AF09A95660F771F2B
:101F4000881FDAF7880F9695879597F908959F3F30
:101F500031F0915020F4879577956795B795880F64
:101F6000911D9695879597F908953FDFA0F0BEE7FC
:101F7000B91788F4BB279F3860F41616B11D672F78
:101F8000782F8827985FF7CF869577956795B11D4D
:101F900093959639C8F308950024552704C0080E78
:101FA000591F880F991F009729F076956795B8F308
:0E1FB0007105B9F7802D952F0895F894FFCF95
:0E1FBE004804010000000102040810204080C9
:00000001FF
