:100000000DC227C226C225C224C201C422C221C2F7
:1000100020C21FC21EC21DC21CC21BC21AC2DEC524
:10002000E9C5F4C5FFC50AC615C620C62BC636C627
:1000300041C6AE2000B0C8001040813FA1A6A83F35
:10004000A4D300D5F0D922DA12DB208D14AFF1DB76
:10005000FE0000FEFBF102A5FD02555775DD555768
:100060007DD5F0FFFCC0552B55FF012B552B81E7AB
:1000700099FFFF99E799FE361C047EB61C047EBEEC
:100080001C00FE3E1C00FF9F0E00001CBE7E001CDC
:100090003EFE041C36FE041CB67E020EDB7F55AA13
:1000A00055AA02FDA5027FDB0E02000E9FFF0A0B80
:1000B0000B041309080C090B0F100F100F100F1071
:1000C0000F100F100F100F100F100F100F100F1038
:1000D000000000000F0000100F100F100F100F1085
:1000E0000F100F100F100F10000000000304030486
:1000F00000000008030403040304030403040304CE
:10010000000000000000000000000000000B0000E4
:1001100000000B00000000000F100F100000000096
:1001200003040304000B00000000000003040304A8
:1001300003040304000003040000000000000000AA
:10014000000003040000000B00000000000D0E0082
:100150000000000003040304000000000000000091
:10016000000000080000030400000B000304030467
:10017000030403040000030400000000030403045C
:10018000000000000B000000030403040000000056
:10019000000000000000000000000000000B000054
:1001A000000000000000000003040304030400003A
:1001B0000000000000000000000000000304030431
:1001C000000000000000000000000B000000000B19
:1001D000000000000000000000000304030403040A
:1001E00003040000000000000304030400000000FA
:1001F00003040304030403040304030403040304C7
:1002000003040304030403040304030403040304B6
:1002100003040304030403040000000003040304B4
:1002200003040304000C0B0C020C03070C080A0265
:100230000C020C020304070C000000000B0C01026E
:100240000306030C030C03060C000000000C020163
:1002500001030303030C01010108070B0000000068
:1002600001020C0C030C030C0102060B0000000041
:10027000010C020A0B0A080C0203030C0303000022
:100280000000030A04070306040603020C03020B22
:100290000C04050102020C0105050C000000000B16
:1002A0000A0A0807060A0605030200000000010109
:1002B0000203040303020C020605070B010C0000F5
:1002C00000000102030707060508090201030406EE
:1002D00007010B00000000010204040205020B09E3
:1002E000080A0A020C040607000000FFFFFFFFFFD8
:1002F0007F7FBFBF9FFFDFDFDFFFBF7F7BFB73071A
:10030000071F7F7F7F7F7FFFFFFBFBFB03FBFBFB69
:10031000FF0DFF0FDFEFEF1FFFEF1FFF7F8FFFFFCF
:10032000FFFFFFFFFFFFFFFFFFFFFF1F07070300A8
:1003300046C3E3E1F1F1F1F9F0F99898D8F8F8F84B
:10034000F8C8E00080E0F0F0FFFF7FBDBEBFBFFF58
:10035000FDFEDFFC1FFFFF1EFDFFEFF0FEFFFFFFB6
:10036000FFFFFFFFFFFFFFFF3FFFFFFFFEFEFCFC65
:10037000F8E1E387070F0F0F0F0F0F0F0F0F07079E
:10038000C3E3F0F8FEFFFFFFFFF0EFDFDF5D5D612D
:100390007F5E407F407F7F405E5E5E617F615A5A34
:1003A0005A597F605E7E7EFEC0DEFFFFFFFFFFFFCB
:1003B000FFFFFFFFFCF8800000044C687878707C39
:1003C000B977776F8FFFFFFFFFFFFFFFFF007F0110
:1003D0000149552501097D0901791579017D3559B5
:1003E00001097D09017F00FFFFFFFF0000000036CB
:1003F00000010200000400000000000000000038BE
:1004000000000000003700020202020202020202A3
:1004100002010204081020200410080011241FBE4D
:10042000CFE5D2E0DEBFCDBF10E0A0E6B0E0E2E66F
:10043000FFE102C005900D92A638B107D9F721E07F
:10044000A6E8B0E001C01D92A83DB207E1F729D2AD
:1004500086CDD6CD1092C90110928A001092CB01A0
:1004600081E0809361001092B6001092B500109266
:10047000860010928700109288001092890080E018
:1004800090E0FC01E457FF4F1082118202968832FF
:100490009105B9F71092B4001092C80108954F92D7
:1004A0005F926F927F928F929F92AF92BF92CF9204
:1004B000DF92EF92FF920F931F93CF93DF93DC01B4
:1004C0001696AD90BC9017978501000F111F000F75
:1004D000111F18968D919C9119972C0123E0440CC3
:1004E000551C2A95E1F7F2013897350121E0621A8F
:1004F0007108660C771C660C771C62E270E0F7DC12
:100500008A0D9B1D60E070E05C01C2E2AC1AB1088C
:100510007F01D7E0ED0EF11C4501860E971EA30169
:1005200020E030E0C901880D991D8A549F4FEC01ED
:100530008881982F977F69F18B3059F195509230CF
:1005400040F1873331F1823421F114968C91149764
:10055000E801C80FD11D87FDDA95CE016A01D3E00D
:10056000CD0ED11CC816D906A4F00796841795079E
:1005700084F015968C911597E201C80FD11D87FD67
:10058000DA95CE01EC16FD0624F007968E179F072C
:100590008CF42F5F3F4F4C5F5F4F2430310509F0E3
:1005A000C1CF6E5D7F4F38966838710509F0B0CFC6
:1005B00080E001C081E0DF91CF911F910F91FF900A
:1005C000EF90DF90CF90BF90AF909F908F907F90F3
:1005D0006F905F904F900895EDE8F0E0DF01119784
:1005E0009C91911103C02081222339F0981303C0FC
:1005F0009081961721F03296F1CF8BE0089580E03C
:10060000089590E02FEF30E0281B31099617E9F0AC
:100610008111C49A40E0E42FF0E0E217F30734F4CC
:1006200055E05A95F1F700004F5FF5CFC49840E0D0
:10063000E42FF0E0E217F30734F455E05A95F1F7B0
:1006400000004F5FF5CF9F5FE1CF0895CF93CFEFCD
:1006500061E08C2FD6DFC150C230D1F7CF91089521
:10066000813049F46AE082EDCCDF62E080EFC9DFDF
:1006700065E084EBC6CF823009F4E8CF0895EADE66
:100680008091CD018F5F8093CD01E0DFDFDFDEDF82
:10069000DDCF823081F018F4813051F0089583303D
:1006A00019F0843009F008958CB58F7D8CBD0895C4
:1006B0008AB58F7702C08AB58F7D8ABD0895C29AA8
:1006C000C09AC098C2980895CF93DF9390E0FC0140
:1006D000EF5EFB4F2491FC01E95FFB4F849188237F
:1006E000C1F090E0880F991FFC01EF5FFB4FC591AF
:1006F000D491FC01E550FC4FA591B4919FB7F894BB
:100700008881E22FE0958E2388838C91E823EC93F7
:100710009FBFDF91CF910895C298C098C29AC09AA6
:10072000089520E030E090E0AC01022E01C0440FBB
:100730000A94EAF747FF02C0C09A01C0C098C29A63
:10074000C2982F5F3F4F2830310571F7C09AC29A87
:10075000C2980895B4DF88E7E4DF80E0E2CFCF936A
:10076000DF931F92CDB7DEB78983F4DF8981D9DFAC
:100770000F90DF91CF91D0CFA2DF88E7D2DF80E466
:10078000D0CFCF93DF93E2EFF3E08491E2E1F4E0A6
:10079000D491E8E0F4E0C491CC2389F0811179DFB1
:1007A000EC2FF0E0EE0FFF1FE551FC4FA591B49147
:1007B000EC91ED2381E090E021F480E002C080E044
:1007C00090E0DF91CF91089517B8369A3699FECF11
:1007D00084B125B190E0922B08951F93CF93DF93BE
:1007E000182FC0EB8C2FBBDF80E0B9DF80E1B7DFD3
:1007F000C3DFD0E0812F95DFDF5FD038D9F78CDF02
:10080000CF5FC83B79F7DF91CF911F9108951F9279
:100810000F920FB60F9211242F933F938F939F93B4
:10082000AF93BF938091D4019091D501A091D6014F
:10083000B091D7013091D30123E0230F2D3720F45D
:100840000196A11DB11D05C026E8230F0296A11D2A
:10085000B11D2093D3018093D4019093D501A0932F
:10086000D601B093D7018091CF019091D001A09192
:10087000D101B091D2010196A11DB11D8093CF018C
:100880009093D001A093D101B093D201BF91AF91C9
:100890009F918F913F912F910F900FBE0F901F90BE
:1008A0001895CF93DF93CDB7DEB72F970FB6F89497
:1008B000DEBF0FBECDBF78948AB582608ABD8AB58F
:1008C00081608ABD83B7826083BF83B7816083BF45
:1008D00089B7826089BF80B7826080BF80B781603E
:1008E00080BF329A319A309A379A8CB580648CBD29
:1008F0002FEF83EF91E0215080409040E1F700C05E
:100900000000B89ABA9A02E310E07CE1F72EF00EEC
:10091000F801849124DF0F5F1F4FF012F9CFFFEF32
:1009200023EF81E0F15020408040E1F700C000005B
:10093000BC9A86E0C9DE81E0C7DEE4EFF3E0849193
:10094000E4E1F4E00491EAE0F4E01491112391F081
:1009500081119FDEE12FF0E0EE0FFF1FE550FC4F0D
:10096000A591B4918FB7F8949C91E02FE095E9237D
:10097000EC938FBF81E074DE69DE68DE81E070DEBB
:1009800065DE64DE9FEFA3ECB9E09150A040B0407B
:10099000E1F700C000005EDD1092CD0187E080939A
:1009A000CA018FEF1ADF00E010E0780156E0EE0C8C
:1009B000FF1C5A95E1F7CEDE84EB800FB2DE82E1B8
:1009C000B0DE81E0AEDEA8DED7DEC12CD12CF60190
:1009D000EE0DFF1DE551FD4F8491A3DEEFEFCE1A22
:1009E000DE0AF0E4CF16D10491F796DE0F5F1F4FB9
:1009F00004301105D1F62FEF87E893E121508040B4
:100A00009040E1F700C00000BCDE892BE9F781E0EF
:100A100027DE8AEA90E044E0C42EC80E1BDD8091F8
:100A2000CD018A3008F0A6CFAFEFB7E8E3E1A150DF
:100A3000B040E040E1F700C0000019821A821B823A
:100A40001C821D821E828BE090E098878F8383E05A
:100A500090E09A87898780E0C0DE86EA90E0F4E043
:100A6000F80FFF87B1DE853F91402CF1ADDE8E3E61
:100A700092400CF58091CC01837041F48091CB01C0
:100A80008F5F833008F071C78093CB0110926100B3
:100A90001D8181E0810F8D83CE01019600DD8130C3
:100AA00009F41D838D81843034F01D828F819885F7
:100AB000019698878F8388DE8E3E92403CF184DEDB
:100AC000863B93401CF58091CC01837041F480916A
:100AD000CB018F5F833008F04BC78093CB0181E05F
:100AE000809361001D818FEF810F8D83CE01019670
:100AF000D6DC813009F41D838D8187FF07C083E038
:100B00008D838F819885019798878F832F81388572
:100B10002A303105D4F48091C90118163CF4909123
:100B20008A0094301CF49F5F90938A0090918A0011
:100B300094305CF018164CF410928A008150809327
:100B4000C9012F5F3F4F38872F838F81988583316D
:100B500091059CF020918A00215027FD03C020932D
:100B60008A000BC023E020938A002091C9012F5FE7
:100B70002093C901019798878F8349845A84F7E0AD
:100B80004F1651044CF062DD8091CA018150809370
:100B9000CA01811143CFEECE2090CD01D090C90182
:100BA00035EA832E31E0932E00E010E0822D90E0B4
:100BB000A0E0B0E08B879C87AD87BE872B843C8408
:100BC000AD2C0D2C000CBB089AE02916310408F05E
:100BD000D1CEEB85FC85E15FFF4F0994F801EA0D6A
:100BE000FB1DF7FD3396F595E795F595E795EA52E8
:100BF000FD4F6BC0F801EA0DFB1DF7FD3396F5952F
:100C0000E795F595E795EF53FD4F5FC0F801EA0DC5
:100C1000FB1DF7FD3396F595E795F595E795E355BB
:100C2000FD4F53C0F801EA0DFB1DF7FD3396F59516
:100C3000E795F595E795E256FD4F47C0F801EA0DB7
:100C4000FB1DF7FD3396F595E795F595E795EF577D
:100C5000FD4F3BC0F801EA0DFB1DF7FD3396F595FE
:100C6000E795F595E795E159FD4F2FC0F801EA0D9D
:100C7000FB1DF7FD3396F595E795F595E795E15A58
:100C8000FD4F23C0F801EA0DFB1DF7FD3396F595E6
:100C9000E795F595E795E45BFD4F17C0F801EA0D80
:100CA000FB1DF7FD3396F595E795F595E795E55C22
:100CB000FD4F0BC0F801EA0DFB1DF7FD3396F595CE
:100CC000E795F595E795EC5DFD4FE491E093C8015C
:100CD000C8018A0D9B1D64E070E01AD9E090C8013C
:100CE000F12CEE0CFF1CEE0CFF1CE80EF91EF701B8
:100CF000E051FE4FE491E093C701D401AC5CB1092F
:100D00003D01EB3039F461E08D2D800F65DCF3019E
:100D1000808301C0EC93F701E454FE4FE491E0932B
:100D2000C701C4018A5A91093C01EB3039F462E0F1
:100D30008D2D800F51DCD3018C9302C0DC01EC932C
:100D4000F701E857FE4FE491E093C701C4018858CA
:100D500091093C01EB3039F463E08D2D800F3CDCD0
:100D6000D3018C9302C0DC01EC93F701EC5AFE4FE7
:100D7000E491E093C701C401865691093C01EB3030
:100D800039F464E08D2D800F27DCD3018C9302C0F1
:100D9000DC01EC93F701E05EFE4FE491E093C701C4
:100DA000C401845491093C01EB3039F465E08D2D88
:100DB000800F12DCD3018C9302C0DC01EC93F701AD
:100DC000E451FF4FE491E093C701C40182973C01D5
:100DD000EB3039F466E08D2D800FFEDBD3018C9370
:100DE00002C0DC01EC93F701E854FF4FE491E0937B
:100DF000C701EB3039F467E08D2D800FEDDBF40196
:100E0000808302C0D401EC930F5F1F4FBFEF8B1A9A
:100E10009B0A0132110509F0D7CE1091B6001111CD
:100E200017C00E8182E0800F883014F48E8305C0D5
:100E30001E82C20101969A878987CE0101962FDB17
:100E4000181634F4842D440C990B9A8789870E83E5
:100E500098DC892B89F411110FC08091B5008111A4
:100E60000BC0CE0101961BDB811106C08E81811162
:100E700003C083E08093B60084DC019711F41092E4
:100E8000B5009091B600191654F509851A85892F79
:100E9000880F2E81281B27FD02C02E8320C087E0EB
:100EA0008E839801215031093A8729879150909378
:100EB000B600121613060CF05EC58091B5008130A5
:100EC00009F459C5CE010196EADA18160CF453C597
:100ED0008091B600811103C081E08093B5005E80EF
:100EE0000F8118855110F4C099848A84892D982D1A
:100EF00062E270E0FCD7800F911FFC01E954FF4FC4
:100F000080818B3081F48091B400E82FF0E0EE0F07
:100F1000FF1FE457FF4F9182D00ED0828F5F8093E6
:100F2000B40081E09DDB7801EFEFEE1AFE0A892D17
:100F3000982D62E270E0DBD78E0D9F1DFC01E95415
:100F4000FF4F80818B3099F49091B400E92FF0E04D
:100F5000EE0FFF1FE457FF4F91828091C901800F70
:100F60008F5F80839F5F9093B40081E079DB5801AD
:100F7000F2E0AF0EB11C892D982D62E270E0B7D778
:100F80008A0D9B1DFC01E954FF4F80818B3099F441
:100F90009091B400E92FF0E0EE0FFF1FE457FF4FF0
:100FA00091828091C901800F8E5F80839F5F9093B3
:100FB000B40081E055DB892D982D62E270E097D76F
:100FC000800F911FFC01E954FF4F80818830D1F0E0
:100FD000892D982D62E270E08AD78E0D9F1DFC014D
:100FE000E954FF4F8081883069F0892D982D62E2A5
:100FF00070E07DD78A0D9B1DFC01E954FF4F808175
:10100000883099F480918B0081110FC08091CA01C2
:1010100081508093CA01882309F4ACCC82E080938C
:10102000B6008EE180938B0011DB892D982D62E252
:1010300070E05DD7800F911FFC01E954FF4F2081C4
:101040002D30F9F0892D982D62E270E050D78E0D89
:101050009F1DFC01E954FF4F30813D3091F0892DF7
:10106000982D62E270E043D78A0D9B1DFC01E95484
:10107000FF4F80818D50823020F02E3011F03E30B5
:1010800079F4E091CD01F0E0E255FF4FE4918091D9
:10109000B400E81305C08091B60018160CF477C4AC
:1010A000892D982D62E270E022D7800F911FFC01FC
:1010B000E954FF4F89818083892D982D62E270E089
:1010C00016D78E0D9F1DFC01E954FF4F8A816EC11A
:1010D000E984FA84C70162E270E009D7800F911FAA
:1010E000FC01E954FF4F80818B3081F48091B40082
:1010F000E82FF0E0EE0FFF1FE457FF4FE182D00E24
:10110000D0828F5F8093B40081E0AADA58012FEF7C
:10111000A21AB20AC70162E270E0E9D68A0D9B1DED
:10112000FC01E954FF4F80818B3099F49091B40019
:10113000E92FF0E0EE0FFF1FE457FF4FE1828091AF
:10114000C901800F8F5F80839F5F9093B40081E01F
:1011500087DA380182E0680E711CC70162E270E034
:10116000C6D6860D971DFC01E954FF4F80818B3058
:1011700099F49091B400E92FF0E0EE0FFF1FE457CF
:10118000FF4FE1828091C901800F8E5F80839F5F56
:101190009093B40081E064DA47019FEF891A990ABD
:1011A000C40162E270E0A3D6800F911FFC01E954F4
:1011B000FF4F80818B30A1F48091B400E82FF0E0E4
:1011C000EE0FFF1FE457FF4F91E09E0D918390912A
:1011D000C901900F90838F5F8093B40081E040DA63
:1011E000C40162E270E083D68A0D9B1DFC01E954C4
:1011F000FF4F80818B30A9F49091B400E92FF0E08B
:10120000EE0FFF1FE457FF4F81E08E0D8183809129
:10121000C901800F8F5F80839F5F9093B40081E04E
:101220001FDAC40162E270E062D6860D971DFC01F0
:10123000E954FF4F80818B30A9F49091B400E92FDD
:10124000F0E0EE0FFF1FE457FF4F81E08E0D81832A
:101250008091C901800F8E5F80839F5F9093B4005F
:1012600081E0FED9C70162E270E041D6FC01E00FE7
:10127000F11FE954FF4F2081283081F0FC01EA0D75
:10128000FB1DE954FF4F2081283041F0860D971D4A
:10129000FC01E954FF4F8081883099F480918B00E4
:1012A00081110FC08091CA0181508093CA018823A7
:1012B00009F460CB82E08093B6008EE180938B00CE
:1012C000C5D9C70162E270E012D6FC01E00FF11F40
:1012D000E954FF4F30813D30B9F1FC01EA0DFB1DAF
:1012E000E954FF4F20812D3079F1860D971DFC01C7
:1012F000E954FF4F40814D3039F1C40162E270E0A2
:10130000F6D5FC01E00FF11FE954FF4F50815D302D
:10131000D9F0FC01EA0DFB1DE954FF4F60816D30EF
:1013200099F0860D971DFC01E954FF4F80818D5087
:10133000823050F03E3041F02E3031F04E3021F00E
:101340005E3011F06E3079F4E091CD01F0E0E255BD
:10135000FF4FE4918091B400E81305C08091B6007E
:1013600018160CF414C3C70162E270E0C0D5FC018A
:10137000E00FF11FE954FF4F298120838A0D9B1D47
:10138000FC01E954FF4F8A818083C40162E270E06E
:10139000AED5080F191FF801E954FF4F2B812083A8
:1013A000FC01EA0DFB1DE954FF4F8C818083809185
:1013B000CC0180FD11C080918B00882369F0909151
:1013C0006000913019F41092600003C091E0909396
:1013D0006000815080938B008091600051100AC0A2
:1013E000813029F485E0898386E08A8312C01982DE
:1013F0001A820FC0813049F485E0898386E08A83B0
:1014000087E38B8382E48C8304C019821A821B8257
:101410001C8280EBA4D980E0A2D980E1A0D9ACD90C
:10142000F12C8091CA0190E02F2D30E0AC014150A9
:10143000510924173507ACF40AEA10E0F801849149
:1014400070D90F5F1F4FC012F9CF06EA10E0F80104
:10145000849167D90F5F1F4FFF85F013F8CFF39486
:10146000E0CFF12C0FE010E0081B190B8F2D90E05E
:10147000801791074CF498E0E92E80E052D9EA9465
:10148000E110FBCFF394F2CFE091CD01F0E0E25513
:10149000FF4FE4918091B400E81311C08091CC011A
:1014A0008F3168F402EA10E084E0F82EF00EF801C3
:1014B000849137D90F5F1F4FF012F9CF0BC014E0A2
:1014C00080E02FD980E02DD980E02BD980E029D988
:1014D0001150B1F7AA24A394B12C80EB8A0D3FD907
:1014E00080E03DD980E13BD947D980918A0004E072
:1014F000081B10E0E12CC50162E270E0F8D48E0D0B
:10150000911DFC01E954FF4F8081873079F4011B64
:10151000E02FE10FE43008F0F9C2F0E0E256FF4FAF
:101520008491FFD81F5F1F3798F33EC3853049F180
:10153000873309F031C18E81E8E0F0E0E81BF10962
:1015400087FDF395EE0FFF1FEE0FFF1FEE59FF4FC4
:10155000208131814281538160E070E088EC92E427
:1015600039D320E030E048EC52E434D36093860075
:10157000709387008093880090938900812C912C30
:1015800017C0EE810E2E000CFF0BEE0FFF1FEE0FAB
:10159000FF1FEE59FF4F80819181A281B38180931B
:1015A000860090938700A0938800B0938900E6CFCF
:1015B0008D81082E000C990B8816990654F480E052
:1015C000B0D81F5FFFEF8F1A9F0A1F3788F3F12CE7
:1015D00002C0FF24F394909161008091CB0191307F
:1015E00009F06DC0811122C07AE9872E70E0972E34
:1015F00004E0010FF401649170E080E090E080D39A
:101600002091860030918700409188005091890098
:1016100003D448D3862F85D81F5F1F3708F0B9C180
:10162000FFEF8F1A9F0A1013E5CF99C1813011F592
:1016300066E9862E60E0962E04E0010FF4016491C5
:1016400070E080E090E05CD32091860030918700CC
:101650004091880050918900DFD324D3862F61D830
:101660001F5F1F3708F078C1FFEF8F1A9F0A101312
:10167000E5CF74C1823009F073C152E9852E50E084
:10168000952E04E0010FF401649170E080E090E099
:1016900037D3209186003091870040918800509187
:1016A0008900BAD3FFD2862F3CD81F5F1F3708F0BE
:1016B0007BC2FFEF8F1A9F0A1013E5CF50C1811133
:1016C00022C04AEA842E40E0942E04E0010FF40187
:1016D000649170E080E090E013D320918600309117
:1016E0008700409188005091890096D3DBD2862FE5
:1016F00018D81F5F1F3708F04CC1FFEF8F1A9F0AE1
:101700001013E5CF2CC1813011F53EE8832E30E077
:10171000932E04E0010FF401649170E080E090E00A
:10172000EFD220918600309187004091880050913F
:10173000890072D3B7D2862FF4D71F5F1F3708F006
:1017400028C1FFEF8F1A9F0A1013E5CF08C182301E
:1017500009F006C12AE8822E20E0922E04E0010F53
:10176000F401649170E080E090E0CAD2209186009C
:101770003091870040918800509189004DD392D2DA
:10178000862FCFD71F5F1F3708F00EC2FFEF8F1ACB
:101790009F0A1013E5CFE3C0863039F1823409F097
:1017A000FAC08E81E8E0F0E0E81BF10987FDF395CF
:1017B000EE0FFF1FEE0FFF1FEE59FF4F208131810B
:1017C0004281538160E070E088EC92E403D220E033
:1017D00030E048EC52E4FED16093860070938700BD
:1017E000809388009093890016C0EE810E2E000C25
:1017F000FF0BEE0FFF1FEE0FFF1FEE59FF4F808113
:101800009181A281B3818093860090938700A093F9
:101810008800B0938900909161008091CB01913054
:1018200009F04DC0811124C0A6E88A2EA0E09A2EAE
:10183000B4E0FB2EF10EF401649170E080E090E0E2
:101840005FD22091860030918700409188005091AE
:101850008900E2D227D2862F64D71F5F1F3708F096
:10186000A3C10D81FFEF8F1A9F0A1F11E4CF7BC028
:10187000813009F04DC1E2E88E2EE0E09E2EF4E0CA
:10188000FF2EF10EF401649170E080E090E038D218
:101890002091860030918700409188005091890006
:1018A000BBD200D2862F3DD71F5F1F3708F07CC107
:1018B0000D81FFEF8F1A9F0A1F11E4CF54C08111D1
:1018C00024C066EA862E60E0962E74E0F72EF10EB4
:1018D000F401649170E080E090E012D220918600E3
:1018E00030918700409188005091890095D2DAD1DB
:1018F000862F17D71F5F1F3708F056C10D81FFEFE6
:101900008F1A9F0A1F11E4CF2EC0813009F026C123
:101910004AE7842E40E0942E54E0F52EF10EF401B7
:10192000649170E080E090E0EBD1209186003091EE
:10193000870040918800509189006ED2B3D1862FE4
:10194000F0D61F5F1F3708F02FC10D81FFEF8F1AF0
:101950009F0A1F11E4CF07C0012FF12C102F00E0C8
:10196000FF2009F421C1E394C6CD1092CB018EC8AB
:101970001092CB01B4C81092B60081E08093B500FC
:101980001E82002E000C110B1A870987A1CA77D678
:1019900046C8F12CE4CF011B813071F4E02FE10F38
:1019A000E43008F0B3C0F0E0EE58FF4F8491B9D6B0
:1019B0001F5F1F3798F3F8C0823071F4E02FE10FFA
:1019C000E43008F0A3C0F0E0E259FF4F8491A9D6BB
:1019D0001F5F1F3798F3E8C0833071F4E02FE10FE9
:1019E000E43008F093C0F0E0E659FF4F849199D6B7
:1019F0001F5F1F3798F3D8C0843071F4E02FE10FD8
:101A0000E43008F083C0F0E0EA59FF4F849189D6B2
:101A10001F5F1F3798F3C8C0883071F4E02FE10FC3
:101A2000E43008F073C0F0E0EE59FF4F849179D6AE
:101A30001F5F1F3798F3B8C08F3071F4E02FE10FAC
:101A4000E43008F063C0F0E0E25AFF4F849169D6B9
:101A50001F5F1F3798F3A8C0803171F4E02FE10FAA
:101A6000E43008F053C0F0E0E65AFF4F849159D6B5
:101A70001F5F1F3798F398C08B3001F58091CC0120
:101A80008F31B8F0E02FE10FE43008F03FC0F0E014
:101A9000EA5AFF4F849145D61F5F1F3798F384C0E1
:101AA000F0E0EE55FF4F84913CD61F5F1F3708F0E2
:101AB0007BC0E02FE10FE43098F328C08D3069F44B
:101AC000E02FE10FE43010F5F0E0EE5AFF4F849183
:101AD00028D61F5F1F37A0F367C08E3099F4E02F20
:101AE000E10FE43098F4F0E0E25BFF4F849119D607
:101AF0001F5F1F37A0F358C080E013D61F5F1F374A
:101B000008F052C0802F810F8430B0F300E02BCF5B
:101B1000823009F028CF2EE7822E20E0922E34E08A
:101B2000F32EF10EF401649170E080E090E0E8D0D3
:101B30002091860030918700409188005091890063
:101B40006BD1B0D0862FEDD51F5F1F3768F50D81A3
:101B5000FFEF8F1A9F0A1F11E5CF3AC0823009F0BC
:101B600002CF86E7882E80E0982E94E0F92EF10EC1
:101B7000F401649170E080E090E0C2D02091860092
:101B800030918700409188005091890045D18AD0DA
:101B9000862FC7D51F5F1F3738F40D81FFEF8F1ACF
:101BA0009F0A1F11E5CF14C0B7D52FEFA21AB20AB2
:101BB00088E0A816B10409F090CC8091CC018F5F29
:101BC0008093CC018D3308F44DC71092CC014AC7E5
:101BD0001F2DC9CE0CD0E6C0DED040F0D5D030F0FD
:101BE00021F45F3F19F0C7C0511110C1CAC0EBD03A
:101BF00098F39923C9F35523B1F3951B550BBB27D4
:101C0000AA2762177307840738F09F5F5F4F220F80
:101C1000331F441FAA1FA9F333D00E2E3AF0E0E879
:101C200030D091505040E695001CCAF729D0FE2FC5
:101C300027D0660F771F881FBB1F26173707480757
:101C4000AB07B0E809F0BB0B802DBF01FF2793580D
:101C50005F4F2AF09E3F510568F08DC0D7C05F3FAF
:101C6000ECF3983EDCF3869577956795B795F795F5
:101C70009F5FC9F7880F911D9695879597F90895ED
:101C8000E1E0660F771F881FBB1F62177307840789
:101C9000BA0720F0621B730B840BBA0BEE1F88F798
:101CA000E095089598D088F09F5790F0B92F992724
:101CB000B751A0F0D1F0660F771F881F991F1AF057
:101CC000BA95C9F712C0B13081F09FD0B1E0089544
:101CD0009CC0672F782F8827B85F39F0B93FCCF3C5
:101CE000869577956795B395D9F73EF4909580954D
:101CF000709561957F4F8F4F9F4F0895E89409C06D
:101D000097FB3EF490958095709561957F4F8F4F2E
:101D10009F4F9923A9F0F92F96E9BB279395F69544
:101D2000879577956795B795F111F8CFFAF4BB0FC2
:101D300011F460FF1BC06F5F7F4F8F4F9F4F16C026
:101D4000882311F096E911C0772321F09EE8872FB0
:101D5000762F05C0662371F096E8862F70E060E06C
:101D60002AF09A95660F771F881FDAF7880F9695E5
:101D7000879597F9089597F99F6780E870E060E08C
:101D800008959FEF80EC089500240A941616170614
:101D900018060906089500240A941216130614065C
:101DA00005060895092E0394000C11F4882352F0BF
:101DB000BB0F40F4BF2B11F460FF04C06F5F7F4F77
:101DC0008F4F9F4F089557FD9058440F551F59F05E
:101DD0005F3F71F04795880F97FB991F61F09F3F18
:101DE00079F087950895121613061406551FF2CF41
:101DF0004695F1DF08C0161617061806991FF1CF91
:101E000086957105610508940895E894BB276627B7
:101E10007727CB0197F908950AD0C4CFB5DF28F012
:101E2000BADF18F0952309F0A6CFABCFEFCFCBDF09
:101E3000A8F39923D9F35523C9F3950F50E0551F03
:101E4000AA27EE27FF27BB2700240894679520F4D4
:101E5000E20FF31FB41F0A1E220F331F441FAA1FD5
:101E60006695A9F7779530F4F30FB41F0A1E121E7A
:101E700008F46395330F441FAA1F221F769599F724
:101E8000879520F4B40F0A1E121E631F440FAA1F69
:101E9000221F331F8695A9F7862F712D602D1124DF
:101EA0009F5750408AF0E1F088234AF0EE0FFF1F61
:101EB000BB1F661F771F881F91505040A9F79E3F98
:101EC000510570F058CFA2CF5F3FECF3983EDCF3A2
:101ED000869577956795B795F795E7959F5FC1F7D5
:101EE000FE2B880F911D9695879597F908950024EC
:101EF000552704C0080E591F880F991F009729F015
:101F000076956795B8F37105B9F7802D952F0895EB
:101F100097FB072E16F4009406D077FD08D00BD05F
:101F200007FC05D03EF4909581959F4F08957095DC
:101F300061957F4F0895AA1BBB1B51E107C0AA1FE3
:101F4000BB1FA617B70710F0A61BB70B881F991F5A
:101F50005A95A9F780959095BC01CD010895F89404
:021F6000FFCFB1
:101F620001010000803F00000040000080400000AE
:101F72000041000080410000004200008042000059
:061F820000430000804353
:00000001FF
